:100000000C9468010C9490010C9490010C94900154
:100010000C9490010C9490010C9490010C9490011C
:100020000C9490010C9490010C94651B0C94EC1BA7
:100030000C9490010C9490010C9490010C949001FC
:100040000C9490010C94E70A0C9490010C9490018C
:100050000C9490010C9490010C9490010C943F131B
:100060000C9490010C9432170C9479170C94900115
:100070000C9490010C9490010C9490010C949001BC
:100080000C9490010C9490010C9490010C949001AC
:100090000C94430D0C9490010C9490010C949001DD
:1000A0000C9490010C9490010C94900100000000BD
:1000B000240027002A002D00300000000000250049
:1000C00028002B002E003100000000002300260035
:1000D00029002C002F000404040404030405020278
:1000E00002020403020202020606060606060404D1
:1000F00002020204040802011040804010204080E7
:10010000408008020401804020100201108010206D
:1001100040400000000200080E0000030401000B34
:1001200000000000000000000000000000000000CF
:10013000070605040100080A0B0C0D09080B000254
:10014000020201000904000001020200000524006F
:100150001001052401010104240206052406000102
:100160000705810310004009040100020A00000095
:100170000705020240000007058302400000040357
:10018000090441726475696E6F2059756E00417281
:100190006475696E6F204C4C430012010002000030
:1001A00000404123418000010102000112010002D0
:1001B000020000404123418000010102000100C112
:1001C0008081C105010902A1010901A10085010584
:1001D000091901290315002501950375018102956F
:1001E000017505810305010930093109381581259B
:1001F0007F750895038106C0C005010906A1018528
:1002000002050719E029E715002501750195088108
:100210000295017508810395067508150025650589
:1002200007190029658100C00904020001030000CC
:100230000009210101000122650007058403400037
:100240000100000000000000002A2B280000000030
:10025000000000000000000000000000000000009E
:10026000002C9EB4A0A1A2A434A6A7A5AE362D371B
:1002700038271E1F20212223242526B333B62EB76C
:10028000B89F8485868788898A8B8C8D8E8F909184
:1002900092939495969798999A9B9C9D2F3130A311
:1002A000AD350405060708090A0B0C0D0E0F1011D9
:1002B00012131415161718191A1B1C1DAFB1B0B55F
:1002C0000000F501DF0B89106516B618A11ABD1DD7
:1002D00011241FBECFEFDAE0DEBFCDBF12E0A0E0F9
:1002E000B1E0EAEBFEE302C005900D92A431B10744
:1002F000D9F715E0A4E1B2E001C01D92A731B10722
:10030000E1F712E0C0EDD2E004C02297FE010E94A6
:10031000571FC23CD107C9F70E940C190C945B1FF0
:100320000C940000FB01DC014150504048F001906A
:100330000D920020C9F701C01D9241505040E0F7D6
:100340000895FC0181E090E00190061609F4CF01C8
:100350000020D1F701970895FB0151915523A9F091
:10036000BF01DC014D9145174111E1F759F4CD0171
:100370000190002049F04D9140154111C9F3FB0156
:100380004111EFCF81E090E001970895482F8C3024
:1003900018F52091140230911502672B81F481E049
:1003A00090E002C0880F991F4A95E2F780959095DA
:1003B000282339233093150220931402089581E0F5
:1003C00090E002C0880F991F4A95E2F7282B392B3D
:1003D00030931502209314020895843028F4E82FF6
:1003E000F0E0EA5EFD4F60830895CF93DF93CFEB9B
:1003F000D2E0CE010E946109239682E0C33ED80775
:10040000C1F7DF91CF910895EF92FF920F931F9361
:10041000CF93DF93062F843008F074C090E00196EC
:10042000682F660F660F660F01976F3108F06EE157
:1004300023E0880F991F2A95E1F7F82E582F41E005
:10044000EE24A02FB0E0C1E0D0E01AC0252F30E0AC
:10045000F901E25EFD4F8081823080F4E42AF901E7
:10046000EE0FFF1FE05CFD4F11821082842F90E0A1
:100470008A239B23892B11F0D183C083440F5F5FB4
:10048000561720F31E2DE0FE05C0602F61708F2DE2
:100490000E94C71511FF06C0602F62708F2D8F5FFD
:1004A0000E94C71512FF06C0602F64708F2D8E5FEB
:1004B0000E94C71513FF06C0602F68708F2D8D5FD7
:1004C0000E94C71514FF06C0602F60718F2D8C5FCE
:1004D0000E94C71515FF06C0602F60728F2D8B5FBD
:1004E0000E94C71516FF06C0602F60748F2D8A5FAB
:1004F0000E94C715E7FE06C000788F2D895F602F28
:100500000E94C715DF91CF911F910F91FF90EF903F
:1005100008950F931F93CF93DF938B018E3168F56E
:10052000C82FD0E0FE01E25EFD4FE081E33071F0C4
:10053000E43019F58C30D8F4CE01880F991F8C0F58
:100540009D1F81549D4F0E94F90911C0833061F0B5
:10055000853051F0863041F0893031F08A3021F019
:100560008B3011F08D3019F4B8010E949514CC0F26
:10057000DD1FC05CDD4F19830883DF91CF911F9190
:100580000F910895DF92EF92FF920F931F93CF93F5
:10059000DF93D82E7B01082F10E0F801E25EFD4FBB
:1005A0008081863061F48091BC02882341F06630FE
:1005B000710529F01092BC028FEF8093C101EBE02E
:1005C000ED1598F0F4E0EF16F10479F0E801CC0FA6
:1005D000DD1FC00FD11FC154DD4FCE010E94E709BE
:1005E000882319F0CE010E947B094D2D42514C30D9
:1005F000B8F4209114023091150282E0E816F1045B
:1006000009F0DEC081E090E0042E02C0880F991F3F
:100610000A94E2F7282B392B309315022093140209
:10062000EDE1ED1530F1ED2DE695E695E6959801B5
:1006300027703070E114F10471F4F0E0E45CFD4FD8
:1006400081E090E002C0880F991F2A95E2F720818F
:10065000282B20830EC0F0E0E45CFD4F81E090E0A9
:1006600002C0880F991F2A95E2F780952081822386
:1006700080839801220F331FF901E05CFD4F118246
:100680001082F2E0EF16F104E1F083E0E816F104E5
:100690004CF4E114F10439F1E1E0EE16F10409F053
:1006A00088C032C0F4E0EF16F10409F460C084E0C1
:1006B000E816F104CCF1E6E0EE16F10409F079C099
:1006C0006DC04C3008F089C0FDE1FD1540F08D2D66
:1006D00060E00E943A158D2D60E00E94C715025E11
:1006E0001D4F82E063C0FDE1FD1508F476C08D2D3D
:1006F00060E00E943A158D2D60E00E94C715025EF1
:100700001D4FF801108269C0FDE1FD1508F465C0B8
:100710008D2D60E00E94C7158D2D61E00E943A1575
:10072000025E1D4F81E042C0F3E0DF1699F085E0E4
:10073000D81681F0E6E0DE1669F0F9E0DF1651F038
:100740008AE0D81639F0EBE0DE1621F0FDE0DF1686
:1007500009F043C08D2D61E00E943A158D2D60E0B7
:1007600070E00E949514025E1D4F83E01FC0FBE005
:10077000FD1598F1F801E25EFD4F84E08083E90108
:10078000C00FD11FC154DD4FCE010E94E70988235D
:1007900021F5CE01B8010E94E00A1FC08EEFD80EED
:1007A000E1E0ED15D0F0025E1D4F86E0F801808398
:1007B00014C089EC93E060E071E00E949A100DC0D3
:1007C00081E090E0042E02C0880F991F0A94E2F79E
:1007D00080959095282339231FCFDF91CF911F91CA
:1007E0000F91FF90EF90DF9008951F938091BC02CE
:1007F000882329F01092BC028FEF8093C1011092E0
:10080000160210923C0210921A02109217021092D5
:100810003D0210921B021092180210923E0210929A
:100820001C021092190210923F0210921D0210E059
:10083000812F82518C3020F4812F62E070E003C060
:10084000812F61E070E00E94C2021F5F1E3181F7BC
:1008500010921502109214021F9108958BE594E0F6
:1008600040E855E260E070E00E94A91704C08BE503
:1008700094E00E944C188BE594E00E943018181602
:100880001906ACF368EE73E080E090E00E94F51387
:100890008BE594E00E9430181816190664F38DE079
:1008A00094E040E855E260E070E00E942A1689EC8E
:1008B00093E061E171E042E023E00E94951189EC50
:1008C00093E060EE49E852E00E94431089EC93E027
:1008D00060E944E052E00E94431089EC93E060EC50
:1008E00046EC51E00E94431089EC93E060ED4DEE40
:1008F00051E00E94431089EC93E064EF42EC52E037
:100900000E94431089EC93E060EF45E057E00E94BD
:10091000671089EC93E06FEF45EF53E00E946110A0
:1009200089EC93E06BE574E00E949D0F0E94F50353
:1009300008951F9310E0812F8250823028F4812F78
:1009400066E070E00E94C2021F5F1E31A1F781E0E5
:100950008093BC028FE493E00E947F0C1F91089566
:100960001F93CF93DF93282F162FC82FD0E0FE01BF
:10097000E45CFD4F80811823442331F4FE01E65EE0
:10098000FD4F8081811751F089EC93E0622F412F58
:1009900050E00E94D20FC65EDD4F1883DF91CF91E9
:1009A0001F910895FF920F931F9380911602882341
:1009B00009F449C0F0903C020F2D80E0F0FE1DC10B
:1009C0000E94FA15892B09F418C111E001FF06C035
:1009D00081E00E94FA15892B09F0126002FF06C01F
:1009E00082E00E94FA15892B09F0146003FF06C00B
:1009F00083E00E94FA15892B09F0186004FF06C0F5
:100A000084E00E94FA15892B09F0106105FF06C0E9
:100A100085E00E94FA15892B09F0106206FF06C0D6
:100A200086E00E94FA15892B09F01064F7FE06C0D3
:100A300087E00E94FA15892B09F0106880E0612F89
:100A400040E00E94B00480911702882309F449C055
:100A5000F0903D020F2DF0FED2C088E00E94FA1502
:100A6000892B09F4CCC011E001FF06C089E00E9487
:100A7000FA15892B09F0126002FF06C08AE00E9475
:100A8000FA15892B09F0146003FF06C08BE00E9461
:100A9000FA15892B09F0186004FF06C08CE00E944B
:100AA000FA15892B09F0106105FF06C08DE00E9440
:100AB000FA15892B09F0106206FF06C08EE00E942D
:100AC000FA15892B09F01064F7FE06C08FE00E942A
:100AD000FA15892B09F0106881E0612F40E00E942F
:100AE000B00480911802882309F449C0F0903E02B6
:100AF0000F2DF0FE86C080E10E94FA15892B09F4C3
:100B000080C011E001FF06C081E10E94FA15892B27
:100B100009F0126002FF06C082E10E94FA15892BDB
:100B200009F0146003FF06C083E10E94FA15892BC7
:100B300009F0186004FF06C084E10E94FA15892BB1
:100B400009F0106105FF06C085E10E94FA15892BA6
:100B500009F0106206FF06C086E10E94FA15892B93
:100B600009F01064F7FE06C087E10E94FA15892B90
:100B700009F0106882E0612F40E00E94B00480918B
:100B80001902882309F441C080913F02082F80FF99
:100B90003AC088E10E94FA15892BA9F111E001FF02
:100BA00006C089E10E94FA15892B09F0126002FF44
:100BB00006C08AE10E94FA15892B09F0146003FF30
:100BC00006C08BE10E94FA15892B09F0186004FF1A
:100BD00006C08CE10E94FA15892B09F0106105FF0F
:100BE00006C08DE10E94FA15892B09F0106283E09E
:100BF000612F40E00E94B00408C010E0E7CE10E092
:100C000033CF10E07FCF10E0CACF1F910F91FF903C
:100C10000895EF92FF920F931F93CF93DF93F82ED7
:100C2000EB01E42E8FEF6F3F780719F4C0E0D0E0BE
:100C300016C08FE493E06F2D0E94A50B8FE493E024
:100C40006C2F0E94270C8FE493E00E946A0C809125
:100C5000BD029091BE02009711F00E9495138FE49F
:100C600093E06F2D4E2D0E947B0C0E2D10E08FE433
:100C700093E00E94AF0B0817190791F4F0929C02C1
:100C8000C0939D02CEE9D2E00C0F1D1F05C08FE47A
:100C900093E00E94B80B8993C017D107C1F712C027
:100CA0008FE493E00E94AF0B801791072CF489EC3E
:100CB00093E06EE271E004C089EC93E066E571E0D8
:100CC0000E949A1082E0E80E89EC93E067E74E2DCF
:100CD0002CE932E00E940410DF91CF911F910F9117
:100CE000FF90EF900895AF92BF92CF92DF92EF9274
:100CF000FF920F931F93CF93DF930E94D20404C0FF
:100D000089EC93E00E94E61089EC93E00E94AB0F1F
:100D1000892BB1F70E94871360937C0270937D0248
:100D200080937E0290937F02A0908002B090810217
:100D3000C0908202D09083022091BF013091C00107
:100D400079010027F7FC0095102F6A197B098C099F
:100D50009D09E616F7060807190708F04BC0EA0CCC
:100D6000FB1C0C1D1D1DE0928002F092810200937D
:100D7000820210938302CEE1D2E01EEE1C30C0F45A
:100D800088818230A9F48091140290911502012E7D
:100D900002C0959587950A94E2F780FF09C0812FDC
:100DA0000E945D14AC0189EC93E0612F0E94B70FA3
:100DB0001F5F21961C3011F78091C10187FD1AC079
:100DC00010E00EC0F901EE0FFF1FE20FF31FEC570A
:100DD000FD4F6181808170E042810E9409061F5FA2
:100DE000212F30E08091C101992787FD90958217CE
:100DF000930744F7DF91CF911F910F91FF90EF90F0
:100E0000DF90CF90BF90AF900895BF92CF92DF92C6
:100E1000EF92FF920F931F93CF93DF93062FEA0178
:100E20008F3609F44CC1803750F48B3609F467C112
:100E30008D3609F4CDC1893609F039C21CC2863716
:100E400069F0873720F4803709F031C2E4C0883771
:100E500009F4C7C08A3709F02AC216C1898185FF03
:100E600005C089EC93E06DE771E054C0688188713A
:100E7000883059F1893018F4882341F018C2803144
:100E800009F440C0883109F012C264C08FE493E0D5
:100E90000E94A50B12E00EC0FE01E10FF11D618161
:100EA0006795662767958081680F8FE493E00E94BD
:100EB000270C1E5F101780F38FE493E00E946A0CEA
:100EC00086E490E00E949513F2C19B818A810630EE
:100ED00071F4979599279795980F4D8147954427D9
:100EE00047958C81480F862F692F70E008C0979531
:100EF00099279795980F862F6FEF7FEF492F0E94C4
:100F00000906D5C18091C10187303CF089EC93E09E
:100F100069EA71E00E949A10CAC18F5F8093C10193
:100F2000992787FD9095FC01EE0FFF1FE80FF91F31
:100F3000EC57FD4F60838B818795882787959A8131
:100F4000890F81838D818795882787959C81890F5B
:100F50008283ADC15091C101151634F420E0C52F34
:100F6000DD27C7FDD09511C08FEF8093C1019FC1D0
:100F7000FC01EE0FFF1FE80FF91FEC57FD4F6083D8
:100F8000662311F0422F24C02F5F822F90E0C817F4
:100F9000D90774F740E01CC04830C8F4C901019675
:100FA000D901AA0FBB1FA20FB31FAC57BD4FFC0145
:100FB000EE0FFF1FE80FF91FEC57FD4F80818C9358
:100FC000808111968C931197828112968C934F5F3A
:100FD000242F30E0C217D307FCF651505093C101C3
:100FE00066C18981682F70E07695762F66277795A0
:100FF00067958881680F711D6115710521F07093E7
:10100000BE026093BD028091BC02882309F04FC1EB
:101010000E9499044CC1653008F449C1F880C98028
:10102000EA80BB80DC808BE08F1508F440C10F2D77
:1010300010E0E801CC0FDD1FC00FD11FC154DD4F00
:10104000CE010E94E709882319F0CE010E947B0996
:101050004E2D50E05695542F4427579547954C0DEB
:10106000511D2D2D30E03695322F222737952795AB
:101070002B0D311DCE01B8010E94610A8F2D64E055
:1010800070E00E94C20213C1623008F410C189816D
:1010900090E09695982F8827979587952881820FBD
:1010A000911D9093C0018093BF010A970CF0FFC07F
:1010B0008AE090E09093C0018093BF01F8C0623055
:1010C00008F4F5C08981682F70E00230A1F08A81B0
:1010D00090E09695982F882797958795682B792B80
:1010E000033049F02B81922F9295990F990F907CA4
:1010F00080E0682B792B88810E948902D8C089EC16
:1011000093E060EF0E94371089EC93E06CE60E9458
:10111000371010E089EC93E060E00E94371089EC12
:1011200093E061E00E94371089EC93E061E00E9457
:10113000371089EC93E061E00E943710812F8251D3
:101140008C3050F489EC93E062E00E94371089EC17
:1011500093E06AE00E943710133061F0153051F0CF
:10116000163041F0193031F01A3021F01B3011F0F7
:101170001D3051F489EC93E063E00E94371089EC54
:1011800093E068E00E9437101C3050F489EC93E043
:1011900064E00E94371089EC93E06EE00E94371003
:1011A000812F8250823050F489EC93E066E00E94F7
:1011B000371089EC93E061E00E94371089EC93E0EE
:1011C0006FE70E9437101F5F1E3109F0A3CF6AC07E
:1011D000662309F46CC0088189EC93E060EF0E94FB
:1011E000371089EC93E06EE60E94371089EC93E0AB
:1011F000602F0E9437100E3108F054C0C02FD0E08D
:10120000FE01E25EFD4F89EC93E060810E943710A1
:101210008E01000F111F005C1D4FF80160816F7778
:1012200089EC93E00E943710F80160817181CB0155
:101230008078892B49F0660F672F661F770B6F77D1
:1012400089EC93E00E943710CC0FDD1FC05CDD4FAE
:1012500028813981C9018070907C892B19F1330F65
:10126000220B330F322F221F622F6F7789EC93E00E
:101270000E94371017C089EC93E060EF0E9437108E
:1012800089EC93E06AE60E9437100EEE0C3010F005
:101290006FE701C0602F89EC93E00E9437100F5F69
:1012A0000C30A1F789EC93E067EF0E943710DF91D3
:1012B000CF911F910F91FF90EF90DF90CF90BF9053
:1012C0000895FC018091E3028C3090F480838F5F5D
:1012D0008093E302815090E0FC01EE0FFF1FE80FC6
:1012E000F91FEC51FD4F88EB9BE0928381830895B9
:1012F0008FEF80830895DC018C9190E0FC01EE0F6C
:10130000FF1FE80FF91FEC51FD4F80818F7B808319
:101310008C916CE00E94E51E90E0AC01440F551FDB
:10132000480F591F440F551F440F551F20E030E050
:10133000C901840F951FFC01EE0FFF1FE80FF91F75
:10134000EC51FD4F808186FD05C02F5F3F4F2C3053
:10135000310571F70895FC0120812C30B8F58181A9
:10136000992787FD909548E850E0481B590B440F9A
:10137000551F440F551F6417750784F08281992704
:1013800087FD909548E552E0481B590B440F551FC7
:10139000440F551F641775070CF4AB0142505040C1
:1013A000CA01AA2797FDA095BA2F880F991FAA1FD7
:1013B000BB1F4FB7F89430E0F901EE0FFF1FE20FAB
:1013C000F31FEC51FD4F928381834FBF0895FC01C1
:1013D000808190E0FC01EE0FFF1FE80FF91FEC5138
:1013E000FD4F8081829586958695817009F081E018
:1013F0000895AF92BF92CF92DF92EF92FF920F9338
:101400001F93CF93DF93EC019B0182E0603278075A
:101410000CF048C077FF03C020E030E005C0653B1A
:10142000710514F024EB30E000D000D0B90188271A
:1014300077FD8095982F2981332727FD3095E8E89F
:10144000AE2EB12CA21AB30AAA0CBB1CAA0CBB1C50
:10145000CC24B7FCC094DC2CEA81FF27E7FDF09593
:1014600028E532E02E1B3F0B220F331F220F331FC4
:10147000442737FD4095542FEDB7FEB721833283C3
:101480004383548320E030E040E050E004EBE02E62
:10149000F12C012D112D0E94391D9B010F900F90F1
:1014A0000F900F90CE01B9010E94AB09DF91CF914F
:1014B0001F910F91FF90EF90DF90CF90BF90AF9072
:1014C0000895CF92DF92EF92FF921F93CF93DF9315
:1014D000EC01162F7A01690188818C3008F064C014
:1014E000862F61E00E943A15888190E0FC01EE0FA2
:1014F000FF1FE80FF91FEC51FD4F1F738081807CA7
:10150000812B808380E292E08E199F0964E070E075
:101510000E94F11E698380E699E08C199D0964E0C0
:1015200070E00E94F11E6A83A8818A2F6CE00E94FD
:10153000E51E682F70E0AB01440F551F460F571F83
:10154000440F551F440F551F20E030E0C901840FA0
:10155000951FFC01EE0FFF1FE80FF91FEC51FD4F27
:10156000808186FD15C02F5F3F4F2C30310571F70C
:1015700024C01092800082E0809381001092850048
:1015800010928400B19A80916F00826080936F0006
:101590008A2F90E0FC01EE0FFF1FE80FF91FEC51BE
:1015A000FD4F8081806480838881DF91CF911F917E
:1015B000FF90EF90DF90CF900895672BD1F2E8CFA6
:1015C00040E252E020E639E00E94610A08951F924D
:1015D0000F920FB60F9211242F933F934F935F9367
:1015E0006F937F938F939F93AF93BF93EF93FF93EB
:1015F0008091080387FF05C0109285001092840037
:101600002BC020910803332727FD30958091E302FA
:1016100090E02817390704F580910803992787FD82
:101620009095FC01EE0FFF1FE80FF91FEC51FD4FE5
:10163000808186FF11C080910803992787FD9095CE
:10164000FC01EE0FFF1FE80FF91FEC51FD4F8081E9
:101650008F7360E00E94C715809108038F5F8093AD
:10166000080320910803332727FD30958091E3027A
:1016700090E0281739070CF04EC0809108038C3099
:101680000CF049C0209184003091850080910803BE
:10169000992787FD9095FC01EE0FFF1FE80FF91FBA
:1016A000EC51FD4F81819281820F931F90938900AD
:1016B0008093880080910803992787FD9095FC010D
:1016C000EE0FFF1FE80FF91FEC51FD4F808186FFE1
:1016D0002BC080910803992787FD9095FC01EE0FA0
:1016E000FF1FE80FF91FEC51FD4F80818F7361E000
:1016F0000E94C71519C080E49CE905C08091840050
:1017000090918500049690938900809388008FEFD4
:101710008093080309C0809184009091850004960D
:1017200080549C4940F3EACFFF91EF91BF91AF9174
:101730009F918F917F916F915F914F913F912F91E9
:101740000F900FBE0F901F90189581E080934E036D
:1017500060932B0310924C0310924D030895209137
:101760002A0330E080912903281B3109C90108951B
:101770004091290380912A03481718F02FEF3FEF7B
:101780000AC0E42FF0E0E75FFC4F8081282F30E0B3
:101790004F5F40932903C9010895E0912903809187
:1017A0002A03E81718F0EFEFFFEF06C0F0E0E75F5D
:1017B000FC4F8081E82FF0E0CF010895089510924A
:1017C00052031092510388EE93E0A0E0B0E08093C2
:1017D000530390935403A0935503B093560387ED9E
:1017E00091E09093500380934F030895CF92DF923E
:1017F000EF92FF920F931F93CF93DF937C016B01C6
:101800008A0180914E038823A1F0C0E0D0E00DC092
:10181000D701ED91FC91D601AC0FBD1F0190F08175
:10182000E02DC7016C9109952196C017D10780F36F
:1018300004C0CB01642F0E94280DC801DF91CF9115
:101840001F910F91FF90EF90DF90CF900895DF935D
:10185000CF930F92CDB7DEB7FC01698380914E0321
:101860008823C9F080914D03803238F081E090E008
:101870009383828320E030E015C080914C03E82FF1
:10188000F0E0E45DFC4F998190838F5F80934C037F
:1018900080934D0305C0CE01019661E00E94280DA2
:1018A00021E030E0C9010F90CF91DF9108950F93AF
:1018B000062F80912B036CE273E040914D0321E0F1
:1018C0000E94D30C10924C0310924D0310924E03C1
:1018D0000F91089561E00E94570C0895413208F07D
:1018E00040E2862F69E073E00E948A0C109229037F
:1018F00080932A03089521E00E946E0C08951092AF
:10190000290310922A0310924C0310924D030E9457
:10191000D40E0895382F413210F040E042C080913B
:101920005B038823E1F791E090935B0320935D03D1
:101930008FEF8093C8031092830341504093840338
:101940004F5F90935C0380915C03330F832B8093F4
:101950005C0380915E03813041F410925E038091BC
:101960005C038093BB0085EC01C085EE8093BC00D6
:1019700080915B038130E1F380918303841710F43D
:101980004091830320E030E00AC0FB01E20FF31F27
:10199000D901AD59BC4F8C9180832F5F3F4F2417E5
:1019A000A0F3842F08950F931F93582F122F4132C5
:1019B00010F081E04AC080915B038823E1F782E068
:1019C00080935B0300935D038FEF8093C8031092B5
:1019D000830340938403A3E6B3E0FB0102C081913B
:1019E0008D938E2F861B8417D0F310925C03809109
:1019F0005C03550F852B80935C0380915E038130DF
:101A000041F410925E0380915C038093BB0085ECEF
:101A100001C085EE8093BC00112321F080915B030F
:101A20008230E1F38091C8038F3F11F480E00DC054
:101A30008091C803803211F482E007C08091C8030E
:101A4000803311F084E001C083E01F910F9108956D
:101A5000482F613210F081E0089580915B0384305B
:101A600011F082E008956093A603A5E8B3E0842F07
:101A70009C01F90102C081918D938E2F841B8617E2
:101A8000D0F380E008951F920F920FB60F921124A9
:101A90002F933F934F935F936F937F938F939F9376
:101AA000AF93BF93EF93FF938091B90090E0887F4D
:101AB00090708036910509F4F2C081369105CCF51D
:101AC0008832910509F47BC089329105B4F48031E4
:101AD000910509F46FC0813191053CF4009709F438
:101AE00047C1089709F04FC165C08831910509F4D5
:101AF00066C0809709F047C182C08034910509F41F
:101B0000A4C08134910544F48033910509F482C066
:101B1000C89709F038C189C08035910509F489C09A
:101B20008835910509F496C08834910509F02BC1D8
:101B3000AEC08839910509F413C189399105ECF4D7
:101B40008837910509F4ABC0893791054CF4883684
:101B5000910509F4A4C08037910509F014C19FC014
:101B60008838910509F4FCC08039910509F49DC0BD
:101B70008038910509F007C198C0803B910509F4B0
:101B8000C6C0813B91054CF4803A910509F49FC091
:101B9000883A910509F0F7C0BAC0803C910509F474
:101BA000E3C0883C910509F4DFC0883B910509F04A
:101BB000EAC0C2C080915C038093BB00CFC090910B
:101BC000830380918403981768F490918303E92F2D
:101BD000F0E0ED59FC4F80818093BB009F5F9093B4
:101BE0008303BCC080915D03882309F44BC085ED5D
:101BF0008093BC008091BC0084FDFCCFC2C080E219
:101C00008093C80385ED8093BC008091BC0084FD67
:101C1000FCCFB7C080E38093C80385ED8093BC0000
:101C20008091BC0084FDFCCFACC088E38093C803E6
:101C30009BC0809183039091BB00E82FF0E0ED59A9
:101C4000FC4F90838F5F80938303909183038091F7
:101C5000840382C0809183039091BB00E82FF0E061
:101C6000ED59FC4F90838F5F8093830380915D03D8
:101C7000882341F085ED8093BC008091BC0084FDF9
:101C8000FCCF7FC081E080935E0384EA6EC085ED67
:101C90008093BC008091BC0084FDFCCF72C083E0C7
:101CA00080935B031092C70359C08091C7038032B1
:101CB00008F056C08091C7039091BB00E82FF0E078
:101CC000E955FC4F90838F5F8093C70347C0809195
:101CD000C703803230F4E091C703F0E0E955FC4FD0
:101CE000108285ED8093BC008091BC0084FDFCCF08
:101CF00010925B036091C703E0916103F09162036E
:101D000087EA93E070E009951092C7032DC084E044
:101D100080935B031092A5031092A603E0915F03EA
:101D2000F091600309958091A603882329F481E04E
:101D30008093A603109285039091A503E92FF0E00C
:101D4000EB57FC4F80818093BB009F5F9093A5036E
:101D50009091A5038091A603981710F485EC01C01B
:101D600085E88093BC000FC085EC8093BC0009C05F
:101D70001092C80385ED8093BC008091BC0084FD67
:101D8000FCCF10925B03FF91EF91BF91AF919F91B8
:101D90008F917F916F915F914F913F912F910F9014
:101DA0000FBE0F901F90189510925B0381E08093F7
:101DB0005D0310925E0382E061E00E94C71583E03C
:101DC00061E00E94C715E9EBF0E080818E7F80839F
:101DD00080818D7F808388E48093B80085E4809340
:101DE000BC000895EF92FF920F931F937C018B012B
:101DF000DC01ED91FC91A081B1816F772D913C9137
:101E0000CF01F9010995D701ED91FC91A081B18134
:101E1000000F012F001F110B0F772D913C91CF0167
:101E2000602FF90109951F910F91FF90EF90089590
:101E3000FC010190F081E02DA081B1812D913C91B8
:101E4000CF0160EFF90109950895FC010190F0813F
:101E5000E02DA081B1812D913C91CF0167EFF90177
:101E6000099508950F931F938C01DC01ED91FC916E
:101E7000A081B1812D913C91CF0169EFF9010995C4
:101E8000D801ED91FC91A081B1812D913C91CF01C0
:101E900062E0F9010995D801ED91FC91A081B18131
:101EA0002D913C91CF0163E0F90109951F910F91AC
:101EB00008951F93CF93DF93EC018A818823C9F1A2
:101EC000CE010E94180FE881F981A081B1812D9186
:101ED0003C91CF0169E7F9010995E881F981A08179
:101EE000B1812B813C814D915C91CF01F9016081E1
:101EF000FA010995E881F981A081B1812B813C81AA
:101F00004D915C91CF01F9016181FA01099512E0CF
:101F10000AC0EB81FC81E10FF11D6081CE0170E010
:101F20000E94F20E1F5F8A81181798F3CE010E945B
:101F3000250FDF91CF911F9108950F931F938C016F
:101F4000FC01718360830E94320FC8010E94590F07
:101F50001F910F910895FC01A081B181ED91FC9139
:101F600011970480F581E02DCD0109950895EF9238
:101F7000FF920F931F938C017A01DC01ED91FC918C
:101F8000A081B1816F70606E2D913C91CF01F901FC
:101F90000995C801B7010E94F20E1F910F91FF90A1
:101FA000EF900895EF92FF920F931F937C018A01A7
:101FB000DC01ED91FC91A081B1816F7060692D9180
:101FC0003C91CF01F9010995D701ED91FC91A081D8
:101FD000B181602F6F772D913C91CF01F901099567
:101FE000D701ED91FC91A081B181000F012F001F5D
:101FF000110B2D913C91CF01602FF90109951F9193
:102000000F91FF90EF900895DF92EF92FF920F9360
:102010001F93CF93DF93EC01162FD42E022FF32EB4
:102020000E94180FE881F981A081B1812D913C9126
:10203000CF01612FF9010995202F3F2DC9017C01A6
:1020400010E008C0F70161917F01CE0170E00E94AD
:10205000F20E1F5F1D15B0F3CE010E94250FDF9118
:10206000CF911F910F91FF90EF90DF900895FC01A9
:102070000190F081E02DA081B1812D913C91CF01A3
:10208000F90109950895FC01603DA9F0613D28F42E
:10209000603959F0603CA1F40BC0603E19F0643F18
:1020A00079F40CC054A743A7089556A745A70895EF
:1020B00050AB47A7089552AB41AB089554AB43AB27
:1020C0000895FC016F3F11F456AB45AB0895FC0138
:1020D00052AF41AF0895FC01158216821782DC01D0
:1020E00080E018961C9218978F5F11968032C9F77E
:1020F00010A612A611A605A8F6A9E02D309709F0A2
:1021000009950895FC011282148213820E946B10BB
:10211000089589EC93E00E94821008959A01FA01D3
:1021200001900020E9F73197E41BF50B4E2F0E9438
:1021300004100895AB0161E70E948E1008951F936B
:10214000CF93DF93EC018885813731F0893789F5AA
:10215000CE010E94590F36C08FA998AD892B91F1FD
:1021600089A59AA5019762E070E00E94F11E162FE2
:10217000862F90E00E940A12AC01DC0121E030E0E1
:1021800011C0FE01E20FF11D90859C932F5FFE01AF
:10219000E20FF11D8085879588278795890F8D939C
:1021A0002F5F3F5F311768F3EFA9F8ADCA010995BA
:1021B00009C0E9ADFAAD309729F069A561502996BB
:1021C000AE010995DF91CF911F910895CF93DF93D1
:1021D000EC01A881B981ED91FC9111970680F781FE
:1021E000E02DCD010995AC0188A5882391F0473FEA
:1021F000510529F418A6CE010E949F1093C089A50D
:102200009AA5FE01E80FF91F408701969AA789A7B2
:1022100089C08D81882309F446C0403851050CF0EF
:1022200042C081508D83FE01E80FF11D4087882355
:1022300009F078C08E81882309F474C0803D49F18B
:10224000813D28F4803959F0803C59F51FC0803E0B
:1022500019F0843F31F513C0EBA5FCA502C0EDA534
:10226000FEA53097F1F0688570E07695762F6627A9
:10227000779567958985680F711D8F8111C0EBA9CE
:10228000FCA9309771F06885898509C0EFA5F8A988
:1022900002C0E9A9FAA9309721F068858F8170E022
:1022A00009951E823FC0403F510514F09A0106C0B7
:1022B0009A01207F3070842F8F708F83203E3105EC
:1022C000F1F0213E310554F4203C3105D1F0203DA0
:1022D0003105B9F02039310529F511C0243F310508
:1022E00071F0253F310524F4203F3105D9F40DC0AC
:1022F000293F310599F02F3F3105A1F40BC082E051
:1023000001C081E08D832E830DC081E088A71AA6CD
:1023100019A608C0CE010E946B1004C089EC93E09E
:102320000E94320FDF91CF910895AF92BF92CF926A
:10233000DF92EF92FF920F931F93CF93DF938C0165
:10234000D62EC72EB42EA22E862F972F6AEB71E0C1
:102350000E94AC01EC018D2D9C2D6FE270E00E947B
:10236000A101209779F07C010894E11CF11CE11493
:10237000F10441F09E012E5F822F8E19D801129632
:102380008C930FC0AD2DBC2DFD0101900020E9F70D
:10239000ED19EF5FD8011296EC932D2D3C2DC9015C
:1023A0007C01F801838194810E94A712D8011296C2
:1023B0008C9190E00E940A12FC01D80114969C9323
:1023C0008E93139712968C911297E80FF11D10823D
:1023D0001396ED91FC911497B0821396ED91FC91B8
:1023E0001497A18213968D919C91149712964C91FB
:1023F00050E0425050400296B7010E949201DF9196
:10240000CF911F910F91FF90EF90DF90CF90BF90F1
:10241000AF9008950F931F93CF93DF93BC01823049
:10242000910510F462E070E0E0911505F091160559
:1024300040E050E0A0E0B0E024C0808191818617A8
:102440009707D0F08617970771F4828193811097D0
:1024500029F013969C938E9312972CC09093160597
:102460008093150527C04115510519F0841795076C
:1024700018F48D01AC01EF01DF01828193819C0191
:10248000F9013097D1F641155105F9F0CA01861BC3
:10249000970B8430910580F48A819B810115110589
:1024A00021F0F8019383828304C0909316058093F2
:1024B0001505FE01329645C0FE01E80FF91F619334
:1024C00071930297998388833CC080911305909102
:1024D0001405892B41F48091C4019091C50190931A
:1024E0001405809313054091C6015091C701411511
:1024F000510541F44DB75EB78091C2019091C3017F
:10250000481B590B209113053091140524173507EA
:10251000B0F4CA01821B930B8617970780F0AB01BA
:102520004E5F5F4F8417950750F0420F531F509333
:10253000140540931305F9016193719302C0E0E023
:10254000F0E0CF01DF91CF911F910F910895CF93CC
:10255000DF939C01009709F48FC0EC0122971B8246
:102560001A8260911505709116056115710581F447
:1025700088819981820F931F209113053091140552
:102580002817390739F5D0931405C093130574C083
:10259000DB0140E050E0AC17BD0708F1BB83AA8324
:1025A000FE0121913191E20FF31FAE17BF0779F4BD
:1025B0008D919C911197280F391F2E5F3F4F3983C2
:1025C000288312968D919C9113979B838A83411542
:1025D000510571F4D0931605C09315054DC01296A0
:1025E0008D919C911397AD01009711F0DC01D3CF31
:1025F000DA011396DC93CE931297FA01219131916F
:10260000E20FF31FCE17DF0769F488819981280F45
:10261000391F2E5F3F4FFA01318320838A819B81CE
:1026200093838283E0E0F0E0DB0112968D919C9130
:102630001397009719F0BC01FD01F6CFAB014E5F77
:102640005F4FDB018D919C91840F951F20911305A5
:10265000309114052817390779F4309729F410922E
:1026600016051092150502C0138212824250504086
:102670005093140540931305DF91CF9108951F9255
:102680000F920FB60F9211242F933F938F939F9326
:10269000AF93BF938091080490910904A0910A041C
:1026A000B0910B0430910C040196A11DB11D232F94
:1026B0002D5F2D3720F02D570196A11DB11D2093C0
:1026C0000C048093080490930904A0930A04B09327
:1026D0000B048091040490910504A0910604B0912C
:1026E00007040196A11DB11D809304049093050475
:1026F000A0930604B0930704BF91AF919F918F916F
:102700003F912F910F900FBE0F901F9018958FB78C
:10271000F894209108043091090440910A045091E2
:102720000B048FBFB901CA010895019739F0880FD2
:10273000991F880F991F02970197F1F708957894D0
:1027400084B5826084BD84B5816084BD85B58260B6
:1027500085BD85B5816085BDEEE6F0E08081816054
:102760008083E1E8F0E01082808182608083808154
:1027700081608083E0E8F0E0808181608083E1E92E
:10278000F0E0808182608083808181608083E0E9E5
:10279000F0E0808181608083E1ECF0E08081846002
:1027A0008083808182608083808181608083E3EC8C
:1027B000F0E0808181608083E0ECF0E080818260E5
:1027C0008083E2ECF0E0808181608083EAE7F0E0E2
:1027D0008081846080838081826080838081816049
:1027E00080838081806880830895EF92FF920F93A9
:1027F0001F93CF93DF937B018C013FB7F8948091B7
:10280000040490910504A0910604B091070426B534
:10281000A89B05C02F3F19F00196A11DB11D3FBF18
:10282000BA2FA92F982F8827820F911DA11DB11DA6
:1028300052E0880F991FAA1FBB1F5A95D1F7EC01D0
:1028400030C00E94821D3FB7F8948091040490919B
:102850000504A0910604B091070426B5A89B05C005
:102860002F3F19F00196A11DB11D3FBFBA2FA92F0F
:10287000982F8827820F911DA11DB11D32E0880F6E
:10288000991FAA1FBB1F3A95D1F78C1B9D0B885E21
:102890009340B8F20894E108F10801091109C85100
:1028A000DC4FE114F1040105110559F6DF91CF91D8
:1028B0001F910F91FF90EF900895823108F082519F
:1028C000E82FF0E0E05DFE4FE49120917B008E2F39
:1028D00086958695869590E08170907035E0880F9A
:1028E000991F3A95E1F72F7D282B20937B00E77005
:1028F0008091C8018295880F880F807C8E2B8093F1
:102900007C0080917A00806480937A0080917A00C4
:1029100086FDFCCF2091780040917900942F80E0D3
:1029200030E0282B392BC90108951F93CF93DF93F3
:10293000182FEB0161E00E943A15209709F48FC02F
:10294000CF3FD10509F48EC0E12FF0E0EE5EFE4FDF
:102950008491883009F440C0893070F4823019F1D4
:10296000833020F4813009F077C018C0833001F142
:10297000843009F071C026C08B3009F44BC08C3014
:1029800030F4893099F18A3009F066C039C08C3052
:1029900009F44DC08E3009F05FC051C084B5806825
:1029A00084BDC7BD63C084B5806284BDC8BD5EC040
:1029B00080918000806880938000D0938900C093CC
:1029C000880054C080918000806280938000D09302
:1029D0008B00C0938A004AC08091900080688093E9
:1029E0009000D0939900C093980040C080919000CF
:1029F000806280939000D0939B00C0939A0036C071
:102A000080919000886080939000D0939D00C09347
:102A10009C002CC08091C00080688093C000809191
:102A2000C0008F7B8093C000C093CF001FC08091F7
:102A3000C00080628093C000C093D00017C0809116
:102A4000C20088608093C2008091C2008B7F809317
:102A5000C200C093D2000AC0C038D1051CF4812F37
:102A600060E002C0812F61E00E94C715DF91CF9125
:102A70001F910895CF93DF93482F50E0CA018C50E7
:102A80009F4FFC0134914A525F4FFA018491882391
:102A900069F190E0880F991FFC01E455FF4FA59163
:102AA000B491FC01E654FF4FC591D491662351F4D3
:102AB0002FB7F8948C91932F909589238C938881CC
:102AC00089230BC0623061F42FB7F8948C91932F57
:102AD000909589238C938881832B88832FBF06C090
:102AE0009FB7F8948C91832B8C939FBFDF91CF91EC
:102AF0000895883071F1893068F4823031F1833083
:102B000020F4813009F042C01DC0833089F0843048
:102B1000E9F512C08B3059F18C3028F48930E9F096
:102B20008A30A1F51EC08C3031F18E3079F529C084
:102B3000809180008F7703C0809180008F7D80938B
:102B40008000089584B58F7702C084B58F7D84BDE1
:102B50000895809190008F7707C0809190008F7DBD
:102B600003C080919000877F8093900008958091AA
:102B7000C0008F7703C08091C0008F7D8093C0001C
:102B800008958091C200877F8093C2000895FF92CC
:102B90000F931F93F62E482F50E0CA018E5E9E4F72
:102BA000FC012491CA018C509F4FFC0114914A52A0
:102BB0005F4FFA0104910023C9F0222319F0822FFC
:102BC0000E947915E02FF0E0EE0FFF1FE654FF4F53
:102BD000A591B4919FB7F894FF2021F48C911095A2
:102BE000812302C08C91812B8C939FBF1F910F91E9
:102BF000FF9008950F931F93482F50E0CA018E5EF7
:102C00009E4FFC012491CA018C509F4FFC010491FE
:102C10004A525F4FFA011491112319F420E030E079
:102C200015C0222319F0822F0E947915812F90E080
:102C3000880F991F88539F4FFC01A591B4918C91E7
:102C400020E030E0802311F021E030E0C9011F9145
:102C50000F9108950895FC012485858530E0205C5E
:102C60003F4F281B31092F733070C9010895FC01B3
:102C700094858585981719F42FEF3FEF06C0858559
:102C8000E80FF11D8685282F30E0C9010895DC0189
:102C90001C969C911C971D968C911D97981719F462
:102CA0002FEF3FEF10C01D968C911D97FD01E80F8F
:102CB000F11D96851D968C911D978F5F8F731D96C4
:102CC0008C93292F30E0C9010895109210041092BE
:102CD0000F0488EE93E0A0E0B0E08093110490939D
:102CE0001204A0931304B093140487EE91E0909320
:102CF0000E0480930D0408950F931F93DF93CF93D9
:102D00000F92CDB7DEB78C0169838091D001882303
:102D100069F083E0BE016F5F7F4F41E050E00E94A9
:102D2000C01A1816190614F49C0107C081E090E03F
:102D3000F8019383828320E030E0C9010F90CF91A6
:102D4000DF911F910F91089583E00E94971A0895D3
:102D50000F931F93CF93DF938C01FC010FC082E090
:102D60000E947D199C01FFEF8F3F9F0799F0F801AA
:102D70008485E80FF11D2687F801C4878485C82F54
:102D8000D0E02196CF73D070F801858590E0C81708
:102D9000D90729F7DF91CF911F910F910895FC0179
:102DA00080818E5F808380E86CE371E042E450E0D4
:102DB0000E9496190895FC0181819081913A59F4FD
:102DC000813209F04CC080E069EC71E047E050E0EE
:102DD0000E94961942C0913209F041C0803239F404
:102DE00089EC91E067E070E00E947F1A36C0823281
:102DF00009F035C082818093D0018091C901909102
:102E0000CA01A091CB01B091CC01805B9440A0405D
:102E1000B04019F58091D00180FD12C087E797E797
:102E200090930108809300082BE088E190E00FB6B2
:102E3000F894A895809360000FBE209360000DC0A9
:102E400088E10FB6F89480936000109260000FBE86
:102E5000A895109201081092000881E0089580E082
:102E6000089508951F920F920FB60F9211242F9379
:102E70003F934F938F939F93EF93FF938091C8005D
:102E800082FD19C04091CE0080917904282F30E056
:102E90002F5F3F4F2F73307080917A0490E0281796
:102EA000390759F0E0917904F0E0E55AFB4F42A36D
:102EB0002093790402C08091CE00FF91EF919F9101
:102EC0008F914F913F912F910F900FBE0F901F90B8
:102ED00018958091790420917A0490E0805C9F4F4E
:102EE000821B91098F739070892B11F00E9431170A
:102EF00008951F920F920FB60F9211242F938F9364
:102F00009F93EF93FF9390917B0480917C0498179B
:102F100031F48091C9008F7D8093C90010C0E09189
:102F20007C04F0E0E354FB4F208180917C0490E02E
:102F300001968F73907080937C042093CE00FF9154
:102F4000EF919F918F912F910F900FBE0F901F9037
:102F50001895AF92BF92DF92EF92FF920F931F935B
:102F6000CF93DF93EC017A018B01DD24403081EEB9
:102F7000580780E0680780E0780711F0DD24D394DB
:102F800091E0A92EB12CE889F989DD2069F0C5010D
:102F90000C8C02C0880F991F0A94E2F7808360E0CE
:102FA00079E08DE390E005C0108260E874E88EE17E
:102FB00090E0A80197010E94041F2150304040403A
:102FC0005040569547953795279580E12030380732
:102FD00020F0DD2011F0DD24D6CFEC85FD85308397
:102FE000EE85FF8520831D8EEA89FB89408121E0E3
:102FF00030E0C901088C02C0880F991F0A94E2F7DB
:10300000482B4083EA89FB894081C901098C02C0B1
:10301000880F991F0A94E2F7482B4083EA89FB89BD
:103020004081C9010A8C02C0880F991F0A94E2F7F7
:10303000482B4083EA89FB8980810B8C02C0220FD8
:10304000331F0A94E2F7209528232083DF91CF9144
:103050001F910F91FF90EF90DF90BF90AF90089578
:10306000FC01268D878D30E0205C3F4F281B310905
:103070002F733070C9010895FC01968D878D9817C4
:1030800019F42FEF3FEF06C0878DE80FF11D82A1E5
:10309000282F30E0C9010895DC015E969C915E976F
:1030A0005F968C915F97981719F42FEF3FEF10C040
:1030B0005F968C915F97FD01E80FF11D92A15F96DD
:1030C0008C915F978F5F8F735F968C93292F30E081
:1030D000C9010895DC015D968C915D97882339F0D4
:1030E0005096ED91FC915197808186FFF9CF5D96C6
:1030F0001C920895DC0190968C919097282F30E0D7
:103100002F5F3F4F2F73307091968C91919790E085
:1031100028173907C9F390968C919097FD01E80F15
:10312000F11DEE59FF4F608390962C939097529625
:10313000ED91FC915397208181E090E05B960C909B
:103140005B9702C0880F991F0A94E2F7282B20830F
:1031500081E05D968C935D975096ED91FC9151972F
:1031600080818064808381E090E0089510925E0405
:1031700010925D0488EE93E0A0E0B0E080935F04DD
:1031800090936004A0936104B093620489EF91E08E
:1031900090935C0480935B0410927C0480917C0487
:1031A00080937B0410927A0480917A04809379044E
:1031B0008DEC90E090936804809367048CEC90E031
:1031C00090936A048093690488EC90E090936C0477
:1031D00080936B0489EC90E090936E0480936D046F
:1031E0008AEC90E09093700480936F048EEC90E0F2
:1031F000909372048093710484E08093730483E05D
:103200008093740487E08093750485E0809376044E
:1032100081E0809377040895CF93DF930E949F13FA
:1032200085E095E00E94A21A0E942E04C9E6D7E12B
:103230000E9473062097E1F30E946917F9CFCF929D
:10324000DF92EF92FF920F931F93CF93DF937C0156
:103250006B018A01C0E0D0E00FC0D6016D916D0115
:10326000D701ED91FC910190F081E02DC701099506
:10327000C80FD91F015010400115110571F7CE017B
:10328000DF91CF911F910F91FF90EF90DF90CF9042
:103290000895282F8091FF048823C1F057FF1AC09A
:1032A00015C028989093FE048091F1008193E21755
:1032B000F307B9F74115510539F08091F2008823E1
:1032C00019F48BE68093E800AFBF02C04FEF5FEFC9
:1032D000CA010895AFB7F89427702093E900809150
:1032E000F200282F30E0241735070CF4A901FB0168
:1032F0009B01240F311D94E6DACFDF93CF930F9219
:10330000CDB7DEB7BE016F5F7F4F41E050E00E9456
:103310004919019719F02FEF3FEF03C08981282F3A
:1033200030E0C9010F90CF91DF910895FF920F9384
:103330001F93F82E142F052F40910205509103057D
:10334000212F302FC901DC01FB016EEF29C0F7FEF0
:1033500002C0949101C09081209100053091010537
:1033600024173507ACF48091E8008570E1F3809173
:10337000E80082FF03C02FEF3FEF17C09093F100EA
:10338000C90101968F739070892B11F46093E80046
:103390002F5F3F4F30930105209300051197319621
:1033A0001097A9F6812F902F9C01C9011F910F91B1
:1033B000FF9008951F93782FE92F162F2091000575
:1033C00030910105A0910205B09103052A173B0732
:1033D000C4F48091E8008570E1F38091E80082FDFB
:1033E00016C0812F90E00196880F991F8093F100FD
:1033F000C90101968F739070892B19F48EEF809319
:10340000E8002F5F3F4F3093010520930005209186
:103410000005309101052A173B07A4F48091E800CC
:103420008570E1F38091E80082FD12C083E0809313
:10343000F100C90101968F739070892B19F48EEFFA
:103440008093E8002F5F3F4F3093010520930005E4
:103450004091000550910105872F9E2FFC0170E0DF
:103460006EEF43C094914A175B07A4F48091E80083
:103470008570E1F38091E80082FF02C020E00DC07A
:103480009093F100CA0101968F739070892B11F40B
:103490006093E8004F5F5F4F21E04A175B07A4F499
:1034A0008091E8008570E1F38091E80082FF02C01E
:1034B00080E00DC01092F100CA0101968F739070E8
:1034C000892B11F46093E8004F5F5F4F81E03196E4
:1034D00090E030E082239323892B31F4509301054F
:1034E0004093000580E009C07F5F711708F4BACFF0
:1034F000509301054093000581E01F9108959C01C0
:103500008091E80082FFFCCFF901260F311D03C036
:103510008091F1008193E217F307D1F7289884E6B0
:103520008093FE048BEF8093E800CB010895809395
:10353000E9008091F200882319F08AE38093E80083
:10354000089508951092FF0481E08093D70080EAE7
:103550008093D80082E189BD09B400FEFDCF61E00F
:1035600070E080E090E00E94F51380E98093D8003D
:103570008CE08093E2001092E000559A209A089522
:103580005F926F927F928F929F92AF92BF92CF92F3
:10359000DF92EF92FF920F931F93CF93DF93E82E6A
:1035A000842E752E8091FF04882371F18B01242FC6
:1035B000352FC901EC01AAEFFA2EF7E09F2E9E20CD
:1035C000E0E45E2E8E2D90E070E2A72EB12CA822B2
:1035D000B9226AE3662E50E4C52ED12CC822D92226
:1035E00058C09FB7F8949092E9008091E80085FD5B
:1035F00002C020E004C08091F200252D281B9FBF4F
:10360000222361F4FA9419F42FEF3FEF4DC061E0EB
:1036100070E080E090E00E94F5133BC0822F90E0C4
:10362000C817D9070CF42C2FC21BD1094FB7F89437
:103630009092E900A114B10421F406C01092F100A7
:1036400021502223D9F719C0E7FC03C0F801922FBB
:1036500010C0C801322F06C0FC010196E491E0932E
:10366000F10031503323C1F706C081918093F100FE
:1036700091509923D1F7020F111D8091E80085FF29
:1036800005C0209729F4C114D10411F06092E8001C
:103690004FBF209709F0A5CF5D9884E68093FD0485
:1036A000282D372DC9019C01C901DF91CF911F91B0
:1036B0000F91FF90EF90DF90CF90BF90AF909F90D1
:1036C0008F907F906F905F9008951F920F920FB62A
:1036D0000F9211242F933F934F935F936F937F9398
:1036E0008F939F93AF93BF93EF93FF938091E100EC
:1036F0001092E100982F83FF0FC01092E90081E043
:103700008093EB001092EC0082E38093ED00109226
:10371000FF0488E08093F00092FF34C083E0809340
:10372000E9008091F200882319F08AE38093E80091
:103730008FB7F89492E09093E9009091F2008FBFD8
:10374000992321F08DE094E00E94A8168091FD0459
:10375000882351F08091FD0481508093FD04809175
:10376000FD04882309F45D9A8091FE04882351F0BA
:103770008091FE0481508093FE048091FE04882392
:1037800009F4289AFF91EF91BF91AF919F918F918A
:103790007F916F915F914F913F912F910F900FBE4D
:1037A0000F901F9018950F931F93DF93CF930F9255
:1037B000CDB7DEB719828E010F5F1F4FC8010E947F
:1037C000CF16C8010E94BA1E898190E00F90CF9158
:1037D000DF911F910F9108951F920F920FB60F92D4
:1037E0001124EF92FF921F932F933F934F935F9378
:1037F0006F937F938F939F93AF93BF93EF93FF93B9
:10380000DF93CF93CDB7DEB76197DEBFCDBF109208
:10381000E9008091E80083FF13C1FE0131969E010B
:10382000275F3F4F03C08091F1008193E217F307B8
:10383000D1F7289884E68093FE0482EF8093E80015
:10384000998197FF05C08091E80080FFFCCF03C0FD
:103850008EEF8093E800292F30E0C90180769070C8
:10386000892B09F0C6C08A81882329F41092F100BF
:103870001092F100DAC0813009F4D7C0833009F426
:10388000D4C0853049F48091E80080FFFCCF8B8163
:1038900080688093E300C9C0863009F080C01C8135
:1038A000EF80F8841230C1F51092E9001092010502
:1038B0001092000510920305109202050E94D31B7E
:1038C00099E0FE013996DF01292F1D922A95E9F72B
:1038D00099871A8791E09E8790E8988B9AEF998B49
:1038E0002091000530910105275F3F4F3C872B87D2
:1038F0008D871092E9001092010510920005F09258
:103900000305E092020580E0BF0149E050E00E941B
:1039100096190E94D31B89C01092E90010920105EC
:1039200010920005F0920305E0920205123241F474
:1039300082E290E00E94B21E892B09F47AC075C021
:10394000113079F488E0E816F10419F481E08093ED
:10395000040580910405882309F06FC0EAE9F1E0CD
:1039600017C0133009F065C08B81882319F4EEE786
:10397000F1E00EC0823019F482E891E005C0813098
:1039800009F057C08EE891E06BE00E94DA194BC055
:10399000449180E8BF0150E00E94961946C08730EC
:1039A00009F447C0883021F481E08093F1003DC0E4
:1039B0008930D9F523703070232BD9F5EFEBF1E086
:1039C00091E031E026E39093E9003093EB0084919D
:1039D0008093EC002093ED009F5F3196953099F72E
:1039E0008EE78093EA001092EA008B818093FF04B7
:1039F0001CC08F8198851092E900109201051092E9
:103A0000000590930305809302058D81882329F496
:103A1000CE0101960E94DB1606C0823051F4CE0121
:103A200001960E94831D882321F08EEF8093E80089
:103A300007C081E28093EB0003C0ECEAF1E0A8CF7D
:103A40006196DEBFCDBFCF91DF91FF91EF91BF9126
:103A5000AF919F918F917F916F915F914F913F9126
:103A60002F911F91FF90EF900F900FBE0F901F901E
:103A700018952F923F924F925F926F927F928F9202
:103A80009F92AF92BF92CF92DF92EF92FF920F93ED
:103A90001F93DF93CF93CDB7DEB73B014C011901E4
:103AA0002A016D897E898F89988D6A197B098C0915
:103AB0009D09621A730A840A950AA40193010E945F
:103AC000C61EE218F30804091509A80197010E940F
:103AD000261F2A0D3B1D4C1D5D1DB901CA01CF914A
:103AE000DF911F910F91FF90EF90DF90CF90BF90EB
:103AF000AF909F908F907F906F905F904F903F908E
:103B00002F9008950895FC0191818081813A31F4CC
:103B1000913089F080E0933089F40DC0813269F4EE
:103B20009B3021F482818093D10105C09A3029F421
:103B300082818093D20181E0089580E00895EF9220
:103B4000FF920F931F938C01E62EDC01ED91FC9107
:103B50000480F581E02D0995F82ED801ED91FC91B6
:103B60000680F781E02DC8016E2D09958F2D90E01C
:103B70001F910F91FF90EF900895109206051092FB
:103B80000A051092090589E092E090930805809358
:103B900007050895EF92FF920F931F93DF93CF9342
:103BA0000F92CDB7DEB789838B017A0184E0BE0125
:103BB0006F5F7F4F41E050E00E94C01A84E4B8017B
:103BC000A7010E94C01A0F90CF91DF911F910F9112
:103BD000FF90EF90089582E048E050E00E94CA1DF7
:103BE0000895FC01168217821086118612861386AC
:103BF00014823496BF010E94EB1D0895DC016838E1
:103C000010F0685829C0E62FF0E067FF13C0E058B5
:103C1000F04081E090E002C0880F991FEA95E2F73A
:103C2000809514962C911497282314962C9314970E
:103C300060E012C0EF5BFD4F6491662319F420E051
:103C400030E01DC067FF08C014968C9114978D7FDB
:103C500014968C9314976F77FD0190E0662321F002
:103C60008681861709F416829F5F31969630B1F7E8
:103C7000CD011496BD010E94EB1D21E030E0C90189
:103C80000895CF93DF93DC01683810F0685825C0A1
:103C9000E62FF0E067FF12C0E058F04081E090E0CE
:103CA00002C0880F991FEA95E2F714962C91149799
:103CB000282B14962C93149760E00FC0EF5BFD4FF8
:103CC00064916623D9F167FF08C014968C9114970C
:103CD000826014968C9314976F7716968C91169732
:103CE0008617A9F117968C911797861781F1189668
:103CF0008C911897861759F119968C9119978617F8
:103D000031F11A968C911A97861709F11B968C91AE
:103D10001B978617E1F0ED01E0E0F0E09E2F8E8129
:103D2000882321F4EA0FFB1F668306C09F5F31964C
:103D30002196E630F10591F7963049F481E090E064
:103D400013969C938E93129720E030E007C0CD012C
:103D50001496BD010E94EB1D21E030E0C901DF9106
:103D6000CF91089580E863EC71E045E650E00E9451
:103D700096190895FC0180818F5F808380E868E256
:103D800072E049E150E00E9496190895629FD001C7
:103D9000739FF001829FE00DF11D649FE00DF11D06
:103DA000929FF00D839FF00D749FF00D659FF00DB5
:103DB0009927729FB00DE11DF91F639FB00DE11DA2
:103DC000F91FBD01CF0111240895991B79E004C0AA
:103DD000991F961708F0961B881F7A95C9F780954A
:103DE000089597FB092E07260AD077FD04D049D005
:103DF00006D000201AF4709561957F4F0895F6F76C
:103E0000909581959F4F0895A1E21A2EAA1BBB1B86
:103E1000FD010DC0AA1FBB1FEE1FFF1FA217B30796
:103E2000E407F50720F0A21BB30BE40BF50B661FAC
:103E3000771F881F991F1A9469F760957095809570
:103E400090959B01AC01BD01CF01089597FB092E10
:103E500005260ED057FD04D0D7DF0AD0001C38F459
:103E600050954095309521953F4F4F4F5F4F0895A6
:103E7000F6F790958095709561957F4F8F4F9F4F86
:103E80000895AA1BBB1B51E107C0AA1FBB1FA617A1
:103E9000B70710F0A61BB70B881F991F5A95A9F7F3
:103EA00080959095BC01CD010895EE0FFF1F059000
:0A3EB000F491E02D0994F894FFCF7F
:103EBA00556E6B6E6F776E2070696E206D6F6465DC
:103ECA00005374616E646172644669726D617461F3
:103EDA005F62723131353230302E696E6F0049328D
:103EEA00432052656164204572726F723A20546FA2
:103EFA006F206D616E7920627974657320726563D3
:103F0A0065697665640049324320526561642045DB
:103F1A0072726F723A20546F6F20666577206279E9
:103F2A007465732072656365697665640031302D46
:103F3A006269742061646472657373696E67206D67
:103F4A006F6465206973206E6F74207965742073BD
:103F5A007570706F7274656400746F6F206D616E36
:103F6A00792071756572696573002E63707000FA45
:103F7A0000FF8000170500000100E10000000000BA
:103F8A0000010100000000270CF60BAF0BB80BCDA7
:103F9A000BDE0B000000007C161F192B1647163784
:103FAA0016A416A816000000007A181F1930184C1B
:103FBA00183C186A18000000009F1D1F19411EFEB8
:043FCA001DF11D00C8
:00000001FF
