:100000000C9468010C9490010C9490010C94900154
:100010000C9490010C9490010C9490010C9490011C
:100020000C9490010C9490010C94601C0C94E71CAF
:100030000C9490010C9490010C9490010C949001FC
:100040000C9490010C94CC0A0C9490010C949001A7
:100050000C9490010C9490010C9490010C94161641
:100060000C943D100C9490010C9490010C94900110
:100070000C9490010C9490010C9490010C949001BC
:100080000C9490010C9490010C9490010C949001AC
:100090000C94280D0C9490010C9490010C949001F8
:1000A0000C9490010C9490010C94900100000000BD
:1000B000240027002A002D00300000000000250049
:1000C00028002B002E003100000000002300260035
:1000D00029002C002F000404040404030405020278
:1000E00002020403020202020606060606060404D1
:1000F00002020204040802011040804010204080E7
:10010000408008020401804020100201108010206D
:1001100040400000000200080E0000030401000B34
:1001200000000000000000000000000000000000CF
:10013000070605040100080A0B0C0D09080B000254
:10014000020201000904000001020200000524006F
:100150001001052401010104240206052406000102
:100160000705810310004009040100020A00000095
:100170000705020240000007058302400000040357
:10018000090441726475696E6F2059756E00417281
:100190006475696E6F204C4C430012010002000030
:1001A00000404123418000010102000112010002D0
:1001B000020000404123418000010102000100C112
:1001C0008081C105010902A1010901A10085010584
:1001D000091901290315002501950375018102956F
:1001E000017505810305010930093109381581259B
:1001F0007F750895038106C0C005010906A1018528
:1002000002050719E029E715002501750195088108
:100210000295017508810395067508150025650589
:1002200007190029658100C00904020001030000CC
:100230000009210101000122650007058403400037
:100240000100000000000000002A2B280000000030
:10025000000000000000000000000000000000009E
:10026000002C9EB4A0A1A2A434A6A7A5AE362D371B
:1002700038271E1F20212223242526B333B62EB76C
:10028000B89F8485868788898A8B8C8D8E8F909184
:1002900092939495969798999A9B9C9D2F3130A311
:1002A000AD350405060708090A0B0C0D0E0F1011D9
:1002B00012131415161718191A1B1C1DAFB1B0B55F
:1002C0000000FC01C40BFE1060133B199C1BB81E00
:1002D00011241FBECFEFDAE0DEBFCDBF12E0A0E0F9
:1002E000B1E0E0EBF0E402C005900D92AC30B10754
:1002F000D9F714E0ACE0B2E001C01D92AF39B1070C
:10030000E1F712E0C0EDD2E004C02297FE010E94A6
:100310005220C23CD107C9F70E94071A0C945620FC
:100320000C940000DC0101C06D9341505040E0F797
:100330000895FB01DC014150504048F001900D92BE
:100340000020C9F701C01D9241505040E0F70895C8
:10035000FC0181E090E00190061609F4CF01002035
:10036000D1F701970895FB0151915523A9F0BF01E1
:10037000DC014D9145174111E1F759F4CD01019090
:10038000002049F04D9140154111C9F3FB01411185
:10039000EFCF81E090E001970895482F8C3018F559
:1003A00020910C0230910D02672B81F481E090E0E6
:1003B00002C0880F991F4A95E2F7809590952823EF
:1003C000392330930D0220930C02089581E090E0D0
:1003D00002C0880F991F4A95E2F7282B392B3093DA
:1003E0000D0220930C020895843028F4E82FF0E0E9
:1003F000E25FFD4F60830895CF93DF93C7EBD2E0B8
:10040000CE010E944609239682E0CB3DD807C1F772
:10041000DF91CF910895EF92FF920F931F93CF93A7
:10042000DF93062F843008F074C090E00196682FA7
:10043000660F660F660F01976F3108F06EE123E0DB
:10044000880F991F2A95E1F7F82E582F41E0EE24E6
:10045000A02FB0E0C1E0D0E01AC0252F30E0F901B4
:10046000EA5EFD4F8081813081F4E42AF901EE0FCC
:10047000FF1FE85CFD4F11821082842F90E08A23D9
:100480009B23892B11F0D183C083440F5F5F5617E4
:1004900020F31E2DE0FE05C0602F61708F2D0E949D
:1004A0009E1811FF06C0602F62708F2D8F5F0E9413
:1004B0009E1812FF06C0602F64708F2D8E5F0E9401
:1004C0009E1813FF06C0602F68708F2D8D5F0E94ED
:1004D0009E1814FF06C0602F60718F2D8C5F0E94E4
:1004E0009E1815FF06C0602F60728F2D8B5F0E94D3
:1004F0009E1816FF06C0602F60748F2D8A5F0E94C1
:100500009E18E7FE06C000788F2D895F602F0E943D
:100510009E18DF91CF911F910F91FF90EF9008955A
:100520000F931F93CF93DF938B018E3168F5C82F04
:10053000D0E0FE01EA5EFD4FE081E33071F0E4308F
:1005400019F58C30D8F4CE01880F991F8C0F9D1FA0
:1005500089549D4F0E94DE0911C0833061F08530BF
:1005600051F0863041F0893031F08A3021F08B3003
:1005700011F08D3019F4B8010E946C17CC0FDD1FFB
:10058000C85CDD4F19830883DF91CF911F910F91D4
:100590000895DF92EF92FF920F931F93CF93DF9313
:1005A000D82E7B01082F10E0F801EA5EFD4F808114
:1005B000863061F48091B402882341F06630710581
:1005C00029F01092B4028FEF8093B101EBE0ED15AA
:1005D00098F0F4E0EF16F10479F0E801CC0FDD1F9C
:1005E000C00FD11FC954DD4FCE010E94CC09882312
:1005F00019F0CE010E9460094D2D42514C30B8F4E3
:1006000020910C0230910D0282E0E816F10409F00D
:10061000DEC081E090E0042E02C0880F991F0A948A
:10062000E2F7282B392B30930D0220930C02EDE1D9
:10063000ED1530F1ED2DE695E695E69598012770DC
:100640003070E114F10471F4F0E0EC5CFD4F81E0F6
:1006500090E002C0880F991F2A95E2F72081282B8D
:1006600020830EC0F0E0EC5CFD4F81E090E002C022
:10067000880F991F2A95E2F7809520818223808335
:100680009801220F331FF901E85CFD4F118210829F
:10069000F2E0EF16F104E1F083E0E816F1044CF427
:1006A000E114F10439F1E1E0EE16F10409F088C03B
:1006B00032C0F4E0EF16F10409F460C084E0E816FB
:1006C000F104CCF1E6E0EE16F10409F079C06DC05A
:1006D0004C3008F089C0FDE1FD1540F08D2D60E043
:1006E0000E9411188D2D60E00E949E180A5E1D4F19
:1006F00082E063C0FDE1FD1508F476C08D2D60E059
:100700000E9411188D2D61E00E949E180A5E1D4FF7
:10071000F801108269C0FDE1FD1508F465C08D2D5A
:1007200060E00E949E188D2D61E00E9411180A5E03
:100730001D4F81E042C0F3E0DF1699F085E0D81646
:1007400081F0E6E0DE1669F0F9E0DF1651F08AE0AC
:10075000D81639F0EBE0DE1621F0FDE0DF1609F0E7
:1007600043C08D2D61E00E9411188D2D60E070E076
:100770000E946C170A5E1D4F83E01FC0FBE0FD1551
:1007800098F1F801EA5EFD4F84E08083E901C00F33
:10079000D11FC954DD4FCE010E94CC09882321F519
:1007A000CE01B8010E94C50A1FC08EEFD80EE1E04D
:1007B000ED15D0F00A5E1D4F86E0F801808314C06D
:1007C00083EF93E060E071E00E9471130DC081E05F
:1007D00090E0042E02C0880F991F0A94E2F78095DA
:1007E0009095282339231FCFDF91CF911F910F912F
:1007F000FF90EF90DF9008951F938091B4028823BB
:1008000029F01092B4028FEF8093B10110920E0282
:10081000109234021092120210920F0210923502BE
:1008200010921302109210021092360210921402CB
:1008300010921102109237021092150210E0812FCF
:1008400082518C3020F4812F62E070E003C0812F50
:1008500061E070E00E94C9021F5F1E3181F71092B3
:100860000D0210920C021F910895EF92FF920F93C8
:100870001F9303EF13E0C80161E171E042E023E060
:100880000E946C14C80160EE40E952E00E941A1305
:10089000C80160E94BE052E00E941A13C80160EC05
:1008A0004DEC51E00E941A13C80160ED44EF51E095
:1008B0000E941A13C80164EF49EC52E00E941A1317
:1008C000C80160EF4AEE56E00E943E13C8016FEF88
:1008D0004CEF53E00E94381371ECE72E73E0F72ED3
:1008E000C7010E94C211C801B7010E9474120E9480
:1008F000FC031F910F91FF90EF9008951F9310E05C
:10090000812F8250823028F4812F66E070E00E94AF
:10091000C9021F5F1E31A1F781E08093B40287E412
:1009200093E00E94640C1F9108951F93CF93DF936F
:10093000282F162FC82FD0E0FE01EC5CFD4F8081E0
:100940001823442331F4FE01EE5EFD4F80818117B0
:1009500051F083EF93E0622F412F50E00E94A912E3
:10096000CE5EDD4F1883DF91CF911F910895FF92E6
:100970000F931F9380910E02882309F449C0F090D1
:1009800034020F2D80E0F0FE1DC10E94D118892B8A
:1009900009F418C111E001FF06C081E00E94D118DE
:1009A000892B09F0126002FF06C082E00E94D11874
:1009B000892B09F0146003FF06C083E00E94D11860
:1009C000892B09F0186004FF06C084E00E94D1184A
:1009D000892B09F0106105FF06C085E00E94D1183F
:1009E000892B09F0106206FF06C086E00E94D1182C
:1009F000892B09F01064F7FE06C087E00E94D11829
:100A0000892B09F0106880E0612F40E00E94950476
:100A100080910F02882309F449C0F09035020F2D10
:100A2000F0FED2C088E00E94D118892B09F4CCC016
:100A300011E001FF06C089E00E94D118892B09F05E
:100A4000126002FF06C08AE00E94D118892B09F0CB
:100A5000146003FF06C08BE00E94D118892B09F0B7
:100A6000186004FF06C08CE00E94D118892B09F0A1
:100A7000106105FF06C08DE00E94D118892B09F096
:100A8000106206FF06C08EE00E94D118892B09F083
:100A90001064F7FE06C08FE00E94D118892B09F080
:100AA000106881E0612F40E00E949504809110025F
:100AB000882309F449C0F09036020F2DF0FE86C05D
:100AC00080E10E94D118892B09F480C011E001FF58
:100AD00006C081E10E94D118892B09F0126002FF43
:100AE00006C082E10E94D118892B09F0146003FF2F
:100AF00006C083E10E94D118892B09F0186004FF19
:100B000006C084E10E94D118892B09F0106105FF0D
:100B100006C085E10E94D118892B09F0106206FFFA
:100B200006C086E10E94D118892B09F01064F7FEF7
:100B300006C087E10E94D118892B09F0106882E075
:100B4000612F40E00E94950480911102882309F4EE
:100B500041C080913702082F80FF3AC088E10E948F
:100B6000D118892BA9F111E001FF06C089E10E948B
:100B7000D118892B09F0126002FF06C08AE10E9499
:100B8000D118892B09F0146003FF06C08BE10E9485
:100B9000D118892B09F0186004FF06C08CE10E946F
:100BA000D118892B09F0106105FF06C08DE10E9464
:100BB000D118892B09F0106283E0612F40E00E9478
:100BC000950408C010E0E7CE10E033CF10E07FCFEF
:100BD00010E0CACF1F910F91FF900895EF92FF92FE
:100BE0000F931F93CF93DF93F82EEB01E42E8FEF3B
:100BF0006F3F780719F4C0E0D0E016C087E493E0B7
:100C00006F2D0E948A0B87E493E06C2F0E940C0CDE
:100C100087E493E00E944F0C8091B5029091B60258
:100C2000009711F00E946C1687E493E06F2D4E2D13
:100C30000E94600C0E2D10E087E493E00E94940B5C
:100C40000817190791F4F0929402C0939502C6E92F
:100C5000D2E00C0F1D1F05C087E493E00E949D0B9E
:100C60008993C017D107C1F712C087E493E00E94AF
:100C7000940B801791072CF483EF93E06EE171E001
:100C800004C083EF93E066E471E00E94711382E098
:100C9000E80E83EF93E067E74E2D24E932E00E94EF
:100CA000DB12DF91CF911F910F91FF90EF9008958C
:100CB000AF92BF92CF92DF92EF92FF920F931F936A
:100CC000CF93DF930E94B70404C083EF93E00E94A8
:100CD000BD1383EF93E00E948212892BB1F70E942B
:100CE0005E166093740270937502809376029093FF
:100CF0007702A0907802B0907902C0907A02D090EA
:100D00007B022091AF013091B00179010027F7FCFF
:100D10000095102F6A197B098C099D09E616F706C4
:100D20000807190708F04BC0EA0CFB1C0C1D1D1D21
:100D3000E0927802F092790200937A0210937B029B
:100D4000C6E1D2E01EEE1C30C0F488818230A9F4E6
:100D500080910C0290910D02012E02C0959587950D
:100D60000A94E2F780FF09C0812F0E943417AC017A
:100D700083EF93E0612F0E948E121F5F21961C303B
:100D800011F78091B10187FD1AC010E00EC0F90182
:100D9000EE0FFF1FE20FF31FE458FD4F61818081CA
:100DA00070E042810E94EE051F5F212F30E08091AC
:100DB000B101992787FD90958217930744F7DF913A
:100DC000CF911F910F91FF90EF90DF90CF90BF9048
:100DD000AF900895BF92CF92DF92EF92FF920F9360
:100DE0001F93CF93DF93062FEA018F3609F44CC18E
:100DF000803750F48B3609F467C18D3609F4CDC1C4
:100E0000893609F039C21CC2863769F0873720F469
:100E1000803709F031C2E4C0883709F4C7C08A3787
:100E200009F02AC216C1898185FF05C083EF93E0CE
:100E30006DE671E054C068818871883059F189305D
:100E400018F4882341F018C2803109F440C0883179
:100E500009F012C264C087E493E00E948A0B12E09A
:100E60000EC0FE01E10FF11D618167956627679550
:100E70008081680F87E493E00E940C0C1E5F1017BE
:100E800080F387E493E00E944F0C86E490E00E9498
:100E90006C16F2C19B818A81063071F4979599276F
:100EA0009795980F4D814795442747958C81480F1A
:100EB000862F692F70E008C0979599279795980F0E
:100EC000862F6FEF7FEF492F0E94EE05D5C18091ED
:100ED000B10187303CF083EF93E069E971E00E9453
:100EE0007113CAC18F5F8093B101992787FD9095D7
:100EF000FC01EE0FFF1FE80FF91FE458FD4F608360
:100F00008B818795882787959A81890F81838D8129
:100F10008795882787959C81890F8283ADC15091E1
:100F2000B101151634F420E0C52FDD27C7FDD0959B
:100F300011C08FEF8093B1019FC1FC01EE0FFF1F25
:100F4000E80FF91FE458FD4F6083662311F0422F2C
:100F500024C02F5F822F90E0C817D90774F740E0B4
:100F60001CC04830C8F4C9010196D901AA0FBB1FA3
:100F7000A20FB31FA458BD4FFC01EE0FFF1FE80FD7
:100F8000F91FE458FD4F80818C93808111968C93DA
:100F90001197828112968C934F5F242F30E0C217F5
:100FA000D307FCF651505093B10166C18981682F77
:100FB00070E07695762F6627779567958881680F1C
:100FC000711D6115710521F07093B6026093B50231
:100FD0008091B402882309F04FC10E947E044CC165
:100FE000653008F449C1F880C980EA80BB80DC80A4
:100FF0008BE08F1508F440C10F2D10E0E801CC0FF5
:10100000DD1FC00FD11FC954DD4FCE010E94CC0996
:10101000882319F0CE010E9460094E2D50E05695AC
:10102000542F4427579547954C0D511D2D2D30E0D9
:101030003695322F2227379527952B0D311DCE015E
:10104000B8010E94460A8F2D64E070E00E94C90238
:1010500013C1623008F410C1898190E09695982FF1
:101060008827979587952881820F911D9093B001CD
:101070008093AF010A970CF0FFC08AE090E0909354
:10108000B0018093AF01F8C0623008F4F5C08981E7
:10109000682F70E00230A1F08A8190E09695982F39
:1010A000882797958795682B792B033049F02B81FA
:1010B000922F9295990F990F907C80E0682B792B55
:1010C00088810E949002D8C083EF93E060EF0E9475
:1010D0000E1383EF93E06CE60E940E1310E083EF93
:1010E00093E060E00E940E1383EF93E061E00E94C2
:1010F0000E1383EF93E061E00E940E1383EF93E001
:1011000061E00E940E13812F82518C3050F483EFE6
:1011100093E062E00E940E1383EF93E06AE00E9486
:101120000E13133061F0153051F0163041F01930C4
:1011300031F01A3021F01B3011F01D3051F483EFE3
:1011400093E063E00E940E1383EF93E068E00E9457
:101150000E131C3050F483EF93E064E00E940E13F2
:1011600083EF93E06EE00E940E13812F8250823055
:1011700050F483EF93E066E00E940E1383EF93E058
:1011800061E00E940E1383EF93E06FE70E940E135D
:101190001F5F1E3109F0A3CF6AC0662309F46CC03B
:1011A000088183EF93E060EF0E940E1383EF93E0DA
:1011B0006EE60E940E1383EF93E0602F0E940E13E1
:1011C0000E3108F054C0C02FD0E0FE01EA5EFD4FA2
:1011D00083EF93E060810E940E138E01000F111FB8
:1011E000085C1D4FF80160816F7783EF93E00E94E8
:1011F0000E13F80160817181CB018078892B49F051
:10120000660F672F661F770B6F7783EF93E00E945F
:101210000E13CC0FDD1FC85CDD4F28813981C90159
:101220008070907C892B19F1330F220B330F322FF2
:10123000221F622F6F7783EF93E00E940E1317C077
:1012400083EF93E060EF0E940E1383EF93E06AE672
:101250000E940E130EEE0C3010F06FE701C0602FED
:1012600083EF93E00E940E130F5F0C30A1F783EF22
:1012700093E067EF0E940E13DF91CF911F910F91C2
:10128000FF90EF90DF90CF90BF900895FC01809188
:10129000DB028C3090F480838F5F8093DB0281507F
:1012A00090E0FC01EE0FFF1FE80FF91FE452FD4F25
:1012B00088EB9BE09283818308958FEF808308956C
:1012C000DC018C9190E0FC01EE0FFF1FE80FF91F8D
:1012D000E452FD4F80818F7B80838C916CE00E9473
:1012E000E01F90E0AC01440F551F480F591F440FF9
:1012F000551F440F551F20E030E0C901840F951F92
:10130000FC01EE0FFF1FE80FF91FE452FD4F808133
:1013100086FD05C02F5F3F4F2C30310571F70895D2
:10132000FC0120812C30B8F58181992787FD9095AB
:1013300048E850E0481B590B440F551F440F551FF8
:101340006417750784F08281992787FD909548E599
:1013500052E0481B590B440F551F440F551F64178B
:1013600075070CF4AB0142505040CA01AA2797FD03
:10137000A095BA2F880F991FAA1FBB1F4FB7F894CB
:1013800030E0F901EE0FFF1FE20FF31FE452FD4FB3
:10139000928381834FBF0895FC01808190E0FC011E
:1013A000EE0FFF1FE80FF91FE452FD4F8081829579
:1013B00086958695817009F081E00895AF92BF927D
:1013C000CF92DF92EF92FF920F931F93CF93DF9311
:1013D000EC019B0182E0603278070CF048C077FF97
:1013E00003C020E030E005C0653B710514F024EB3C
:1013F00030E000D000D0B901882777FD8095982F84
:101400002981332727FD3095E8E8AE2EB12CA21AAA
:10141000B30AAA0CBB1CAA0CBB1CCC24B7FCC094FE
:10142000DC2CEA81FF27E7FDF09528E532E02E1B52
:101430003F0B220F331F220F331F442737FD4095E8
:10144000542FEDB7FEB7218332834383548320E0CA
:1014500030E040E050E004EBE02EF12C012D112DA6
:101460000E94341E9B010F900F900F900F90CE01A1
:10147000B9010E949009DF91CF911F910F91FF90C8
:10148000EF90DF90CF90BF90AF900895CF92DF9212
:10149000EF92FF921F93CF93DF93EC01162F7A0107
:1014A000690188818C3008F064C0862F61E00E9459
:1014B0001118888190E0FC01EE0FFF1FE80FF91F63
:1014C000E452FD4F1F738081807C812B808380E2FA
:1014D00092E08E199F0964E070E00E94EC1F69831E
:1014E00080E699E08C199D0964E070E00E94EC1F91
:1014F0006A83A8818A2F6CE00E94E01F682F70E049
:10150000AB01440F551F460F571F440F551F440F83
:10151000551F20E030E0C901840F951FFC01EE0F3C
:10152000FF1FE80FF91FE452FD4F808186FD15C0B3
:101530002F5F3F4F2C30310571F724C0109280008F
:1015400082E0809381001092850010928400B19A0D
:1015500080916F00826080936F008A2F90E0FC0181
:10156000EE0FFF1FE80FF91FE452FD4F80818064EA
:1015700080838881DF91CF911F91FF90EF90DF9062
:10158000CF900895672BD1F2E8CF40E252E020E6F9
:1015900039E00E94460A08951F920F920FB60F92EB
:1015A00011242F933F934F935F936F937F938F9368
:1015B0009F93AF93BF93EF93FF938091000387FFB7
:1015C00005C010928500109284002BC0209100036A
:1015D000332727FD30958091DB0290E028173907EB
:1015E00004F580910003992787FD9095FC01EE0F8B
:1015F000FF1FE80FF91FE452FD4F808186FF11C0E5
:1016000080910003992787FD9095FC01EE0FFF1F45
:10161000E80FF91FE452FD4F80818F7360E00E9454
:101620009E18809100038F5F809300032091000338
:10163000332727FD30958091DB0290E0281739078A
:101640000CF04EC0809100038C300CF049C020910A
:1016500084003091850080910003992787FD909543
:10166000FC01EE0FFF1FE80FF91FE452FD4F8181CF
:101670009281820F931F90938900809388008091BC
:101680000003992787FD9095FC01EE0FFF1FE80FDF
:10169000F91FE452FD4F808186FF2BC0809100032B
:1016A000992787FD9095FC01EE0FFF1FE80FF91FAA
:1016B000E452FD4F80818F7361E00E949E1819C033
:1016C00080E49CE905C08091840090918500049697
:1016D00090938900809388008FEF8093000309C066
:1016E0008091840090918500049680549C4940F339
:1016F000EACFFF91EF91BF91AF919F918F917F9131
:101700006F915F914F913F912F910F900FBE0F906E
:101710001F90189581E080934603609323031092F5
:1017200044031092450308952091220330E08091F4
:101730002103281B3109C90108954091210380919B
:101740002203481718F02FEF3FEF0AC0E42FF0E014
:10175000EF5FFC4F8081282F30E04F5F40932103E3
:10176000C9010895E091210380912203E81718F040
:10177000EFEFFFEF06C0F0E0EF5FFC4F8081E82F56
:10178000F0E0CF010895089510924A0310924903A2
:1017900088EE93E0A0E0B0E080934B0390934C037D
:1017A000A0934D03B0934E0387EC91E090934803D0
:1017B000809347030895CF92DF92EF92FF920F93A9
:1017C0001F93CF93DF937C016B018A0180914603C5
:1017D0008823A1F0C0E0D0E00DC0D701ED91FC91CD
:1017E000D601AC0FBD1F0190F081E02DC7016C91B7
:1017F00009952196C017D10780F304C0CB01642F4F
:101800000E940D0DC801DF91CF911F910F91FF90A4
:10181000EF90DF90CF900895DF93CF930F92CDB7E5
:10182000DEB7FC016983809146038823C9F080916B
:101830004503803238F081E090E09383828320E09A
:1018400030E015C080914403E82FF0E0EC5DFC4FE0
:10185000998190838F5F809344038093450305C0F3
:10186000CE01019661E00E940D0D21E030E0C9013A
:101870000F90CF91DF9108950F93062F809123034E
:1018800064E273E04091450321E00E94B80C10929D
:10189000440310924503109246030F91089561E0AE
:1018A0000E943C0C0895413208F040E2862F61E02E
:1018B00073E00E946F0C109221038093220308951D
:1018C00021E00E94530C08951092210310922203EC
:1018D00010924403109245030E94B90E0895382FC8
:1018E000413210F040E042C0809153038823E1F779
:1018F00091E090935303209355038FEF8093C0039F
:1019000010927B03415040937C034F5F90935403AC
:1019100080915403330F832B80935403809156039B
:10192000813041F410925603809154038093BB00A0
:1019300085EC01C085EE8093BC008091530381301B
:10194000E1F380917B03841710F440917B0320E046
:1019500030E00AC0FB01E20FF31FD901A55ABC4FCA
:101960008C9180832F5F3F4F2417A0F3842F08951D
:101970000F931F93582F122F413210F081E04AC06D
:10198000809153038823E1F782E08093530300930F
:1019900055038FEF8093C00310927B0340937C0329
:1019A000ABE5B3E0FB0102C081918D938E2F861BC6
:1019B0008417D0F31092540380915403550F852B54
:1019C0008093540380915603813041F41092560362
:1019D000809154038093BB0085EC01C085EE809319
:1019E000BC00112321F0809153038230E1F38091F8
:1019F000C0038F3F11F480E00DC08091C00380329E
:101A000011F482E007C08091C003803311F084E0BC
:101A100001C083E01F910F910895482F613210F0AB
:101A200081E0089580915303843011F082E008959D
:101A300060939E03ADE7B3E0842F9C01F90102C0DF
:101A400081918D938E2F841B8617D0F380E00895AB
:101A50001F920F920FB60F9211242F933F934F9323
:101A60005F936F937F938F939F93AF93BF93EF9306
:101A7000FF938091B90090E0887F90708036910547
:101A800009F4F2C081369105CCF58832910509F44C
:101A90007BC089329105B4F48031910509F46FC09F
:101AA000813191053CF4009709F447C1089709F08A
:101AB0004FC165C08831910509F466C0809709F06F
:101AC00047C182C08034910509F4A4C081349105D6
:101AD00044F48033910509F482C0C89709F038C1F5
:101AE00089C08035910509F489C08835910509F4CC
:101AF00096C08834910509F02BC1AEC08839910594
:101B000009F413C189399105ECF48837910509F47A
:101B1000ABC0893791054CF48836910509F4A4C00F
:101B20008037910509F014C19FC08838910509F4E8
:101B3000FCC08039910509F49DC08038910509F0F9
:101B400007C198C0803B910509F4C6C0813B91054F
:101B50004CF4803A910509F49FC0883A910509F048
:101B6000F7C0BAC0803C910509F4E3C0883C9105F8
:101B700009F4DFC0883B910509F0EAC0C2C080913A
:101B800054038093BB00CFC090917B0380917C0372
:101B9000981768F490917B03E92FF0E0E55AFC4F29
:101BA00080818093BB009F5F90937B03BCC080913A
:101BB0005503882309F44BC085ED8093BC008091C8
:101BC000BC0084FDFCCFC2C080E28093C00385EDE1
:101BD0008093BC008091BC0084FDFCCFB7C080E343
:101BE0008093C00385ED8093BC008091BC0084FD90
:101BF000FCCFACC088E38093C0039BC080917B0383
:101C00009091BB00E82FF0E0E55AFC4F90838F5F86
:101C100080937B0390917B0380917C0382C08091B1
:101C20007B039091BB00E82FF0E0E55AFC4F9083D6
:101C30008F5F80937B0380915503882341F085ED6E
:101C40008093BC008091BC0084FDFCCF7FC081E00C
:101C50008093560384EA6EC085ED8093BC0080912A
:101C6000BC0084FDFCCF72C083E0809353031092CC
:101C7000BF0359C08091BF03803208F056C08091E5
:101C8000BF039091BB00E82FF0E0E156FC4F90833A
:101C90008F5F8093BF0347C08091BF03803230F4D1
:101CA000E091BF03F0E0E156FC4F108285ED809398
:101CB000BC008091BC0084FDFCCF10925303609166
:101CC000BF03E0915903F0915A038FE993E070E06C
:101CD00009951092BF032DC084E0809353031092A6
:101CE0009D0310929E03E0915703F09158030995CC
:101CF00080919E03882329F481E080939E031092B3
:101D00007D0390919D03E92FF0E0E358FC4F808123
:101D10008093BB009F5F90939D0390919D03809162
:101D20009E03981710F485EC01C085E88093BC00F1
:101D30000FC085EC8093BC0009C01092C00385EDF4
:101D40008093BC008091BC0084FDFCCF10925303B3
:101D5000FF91EF91BF91AF919F918F917F916F9183
:101D60005F914F913F912F910F900FBE0F901F9059
:101D700018951092530381E08093550310925603F7
:101D800082E061E00E949E1883E061E00E949E185C
:101D9000E9EBF0E080818E7F808380818D7F80837E
:101DA00088E48093B80085E48093BC0008959CB5D6
:101DB000937F982B9CBD0895FC0185859685A7850A
:101DC000B08981FD07C0826085879687A787B08B21
:101DD000769A76980895FC01A38DB48D278D30A155
:101DE000C9010197A817B90719F18589968928179C
:101DF000390741F4818D928D0197280F391FA21761
:101E0000B307B1F06C93438D548D25893689818D4C
:101E1000928D0197820F931F4817590718F4CA0132
:101E2000019601C0C901948F838F21E030E002C088
:101E300020E030E0C9010895DC015D96ED91FC9150
:101E40005E9791962D913C919297C9010197E81761
:101E5000F90709F455C057968D919C91589728170A
:101E6000390759F459968D919C915A970197280FEB
:101E7000391FE217F30709F443C060835D964D9163
:101E80005C915E9757962D913C91589759968D91FC
:101E90009C915A970197820F931F4817590718F47E
:101EA000CA01019601C0C9015E969C938E935D970D
:101EB00053968C9153978F5F53968C935397979625
:101EC0008C9197976817A9F49C968D919C919D97FA
:101ED000892B79F481E090E09D969C938E939C975A
:101EE000ED91FC9111970190F081E02DCD010995C4
:101EF00004C09D961C921E929C9721E030E002C087
:101F000020E030E0C9010895FC0185859685A7850C
:101F1000B0898D7F85879687A787B08BA1A1B2A155
:101F2000858D968D8A179B0721F091A587A198171B
:101F300039F447A181A5841709F440E041A714C0F2
:101F40004C912789308D818D928D0197820F931F3F
:101F5000A817B90718F4CD01019601C0C90192A3D1
:101F600081A383898150838B842F0895FC01838909
:101F70000895DC0195968D919C919697892B49F057
:101F800052968C915297882321F0815052968C93CF
:101F9000529795968D919C9196978130910521F15C
:101FA000823091051CF4892B41F056C08230910596
:101FB000D9F1039709F050C032C051966C935197F4
:101FC00052966C93529799961C9299979F961C9251
:101FD0001E929E97662329F424E030E040E050E012
:101FE0003FC081E090E034C09E968D919C919F9778
:101FF000FD01E80FF91F62A701969F969C938E93AF
:102000009E9798968C919897681719F482E090E0C3
:102010001FC083E090E096969C938E93959723E063
:1020200030E040E050E01CC09E968D919C919F97BF
:10203000FD01E80FF91F62A701969F969C938E936E
:102040009E9798968C919897681719F384E090E082
:1020500096969C938E93959722E030E040E050E076
:1020600052968C915297882329F42D7F96961C9234
:102070001E929597B901CA0108951F920F920FB64B
:102080000F9211240F931F932F933F934F935F93BE
:102090006F937F938F939F93AF93BF93EF93FF9330
:1020A0008DB50EB581EC93E0602F0E94B90F162F0D
:1020B00060FF05C081EC93E0602F0E94EB0E11FFE2
:1020C00005C081EC93E00E94840F02C08091D4038C
:1020D0008EBDFF91EF91BF91AF919F918F917F91B5
:1020E0006F915F914F913F912F911F910F910F90A1
:1020F0000FBE0F901F901895FC0140E050E0278D17
:1021000030A1838D948D2817390711F041E050E0FC
:10211000CA010895FC01A78DB0A1838D948D8A1703
:102120009B0719F42FEF3FEF03C08C91282F30E06D
:10213000C9010895DC015F96ED91FC9190975B9643
:102140008D919C915C978E179F0711F440E017C00A
:10215000408155962D913C91569759968D919C9121
:102160005A970197820F931FE817F90718F4CF01C8
:10217000019601C0C90190969C938E935F97842F1E
:1021800090E00895CF93DF93EC0107C0E881F981D7
:102190000684F785E02DCE0109952D8D3E8D89A110
:1021A0009AA12817390791F7DF91CF9108951F93CE
:1021B000CF93DF93EC01162FCE01612F0E941C0FED
:1021C000E881F981892B31F40684F785E02DCE0171
:1021D0000995F2CF0288F389E02DCE010995882375
:1021E00039F0E881F9810684F785E02DCE01099563
:1021F00081E090E0DF91CF911F9108951092C40388
:102200001092C30388EE93E0A0E0B0E08093C50392
:102210009093C603A093C703B093C80387ED91E0E2
:102220009093C2038093C10308950F931F93CF939C
:10223000DF93EC0108A919A9E881F9810484F585E7
:10224000E02D09950115110561F0015010408D85B3
:1022500081FF0AC061E070E080E090E00E94CC164F
:10226000F1CFCE010E94840FDF91CF911F910F918A
:102270000895FF920F931F93CF93DF93EC01162FD6
:10228000072FF42E698F7A8F862F972F0E94E114E3
:102290009E8B8D8B009779F0812F902F0E94E114F7
:1022A0008F8B988F2D893E892115310539F480E077
:1022B00090E00E947E152FEF3FEF5DC0C90160E006
:1022C00070E0412F502F0E9492018F89988D60E01D
:1022D00070E0412F502F0E9492012D893E893C8F42
:1022E0002B8F8F89988D9E8F8D8F38A32F8F9AA3D8
:1022F00089A38EE061E00E94111881E160E00E94F4
:1023000011188FE060E00E94111880E160E00E94E7
:1023100011188CB580648CBD8CB58F7E8CBD8FEF11
:1023200088A78FA31EBC19A68F2D0E94D70E8CB52F
:1023300080688CBD289880B78B7F80BF80B78F77EF
:1023400080BFEE9876986E9A1CA21BA282E390E062
:1023500099AB88AB8D859E85AF85B88981608D8767
:102360009E87AF87B88B198A1A8A1B8A1C8A1EA27D
:102370001DA220E030E0C901DF91CF911F910F91A4
:10238000FF90089560E470E040E050E00E94391151
:102390000895EF92FF920F931F937C018B01DC0154
:1023A000ED91FC91A081B1816F772D913C91CF018E
:1023B000F9010995D701ED91FC91A081B181000F40
:1023C000012F001F110B0F772D913C91CF01602F32
:1023D000F90109951F910F91FF90EF900895FC016D
:1023E0000190F081E02DA081B1812D913C91CF0130
:1023F00060EFF90109950895FC010190F081E02D4D
:10240000A081B1812D913C91CF0167EFF901099530
:1024100008950F931F938C01DC01ED91FC91A08135
:10242000B1812D913C91CF0169EFF9010995D80156
:10243000ED91FC91A081B1812D913C91CF0162E0A1
:10244000F9010995D801ED91FC91A081B1812D91FF
:102450003C91CF0163E0F90109951F910F91089517
:102460001F93CF93DF93EC018A818823C9F1CE01BA
:102470000E94EF11E881F981A081B1812D913C91F9
:10248000CF0169E7F9010995E881F981A081B1815E
:102490002B813C814D915C91CF01F9016081FA0162
:1024A0000995E881F981A081B1812B813C814D9111
:1024B0005C91CF01F9016181FA01099512E00AC02E
:1024C000EB81FC81E10FF11D6081CE0170E00E9483
:1024D000C9111F5F8A81181798F3CE010E94FC1161
:1024E000DF91CF911F9108950F931F938C01FC01F1
:1024F000718360830E940912C8010E9430121F91EB
:102500000F910895FC01A081B181ED91FC9111978B
:102510000480F581E02DCD0109950895EF92FF9299
:102520000F931F938C017A01DC01ED91FC91A08146
:10253000B1816F70606E2D913C91CF01F9010995C9
:10254000C801B7010E94C9111F910F91FF90EF9030
:102550000895EF92FF920F931F937C018A01DC0193
:10256000ED91FC91A081B1816F7060692D913C91DA
:10257000CF01F9010995D701ED91FC91A081B181BD
:10258000602F6F772D913C91CF01F9010995D7010B
:10259000ED91FC91A081B181000F012F001F110B63
:1025A0002D913C91CF01602FF90109951F910F9159
:1025B000FF90EF900895DF92EF92FF920F931F9399
:1025C000CF93DF93EC01162FD42E022FF32E0E940F
:1025D000EF11E881F981A081B1812D913C91CF016A
:1025E000612FF9010995202F3F2DC9017C0110E0D1
:1025F00008C0F70161917F01CE0170E00E94C9110E
:102600001F5F1D15B0F3CE010E94FC11DF91CF9129
:102610001F910F91FF90EF90DF900895FC010190C2
:10262000F081E02DA081B1812D913C91CF01F90184
:1026300009950895FC01603DA9F0613D28F46039D9
:1026400059F0603CA1F40BC0603E19F0643F79F48E
:102650000CC054A743A7089556A745A7089550ABAB
:1026600047A7089552AB41AB089554AB43AB0895CF
:10267000FC016F3F11F456AB45AB0895FC0152AF1E
:1026800041AF0895FC01158216821782DC0180E0BB
:1026900018961C9218978F5F11968032C9F710A672
:1026A00012A611A605A8F6A9E02D309709F0099504
:1026B0000895FC011282148213820E94421308952D
:1026C00083EF93E00E94591308959A01FA01019053
:1026D0000020E9F73197E41BF50B4E2F0E94DB1227
:1026E0000895AB0161E70E94651308951F93CF938E
:1026F000DF93EC018885813731F0893789F5CE0188
:102700000E94301236C08FA998AD892B91F189A50E
:102710009AA5019762E070E00E94EC1F162F862FA9
:1027200090E00E94E114AC01DC0121E030E011C036
:10273000FE01E20FF11D90859C932F5FFE01E20FD9
:10274000F11D8085879588278795890F8D932F5F49
:102750003F5F311768F3EFA9F8ADCA01099509C0C9
:10276000E9ADFAAD309729F069A561502996AE011F
:102770000995DF91CF911F910895CF93DF93EC01DD
:10278000A881B981ED91FC9111970680F781E02D28
:10279000CD010995AC0188A5882391F0473F5105EB
:1027A00029F418A6CE010E94761393C089A59AA594
:1027B000FE01E80FF91F408701969AA789A789C0F3
:1027C0008D81882309F446C0403851050CF042C081
:1027D00081508D83FE01E80FF11D4087882309F0A9
:1027E00078C08E81882309F474C0803D49F1813D11
:1027F00028F4803959F0803C59F51FC0803E19F00B
:10280000843F31F513C0EBA5FCA502C0EDA5FEA5E4
:102810003097F1F0688570E07695762F662777958A
:1028200067958985680F711D8F8111C0EBA9FCA97F
:10283000309771F06885898509C0EFA5F8A902C0B5
:10284000E9A9FAA9309721F068858F8170E0099590
:102850001E823FC0403F510514F09A0106C09A0104
:10286000207F3070842F8F708F83203E3105F1F0F0
:10287000213E310554F4203C3105D1F0203D310595
:10288000B9F02039310529F511C0243F310571F027
:10289000253F310524F4203F3105D9F40DC0293FEF
:1028A000310599F02F3F3105A1F40BC082E001C042
:1028B00081E08D832E830DC081E088A71AA619A61A
:1028C00008C0CE010E94421304C083EF93E00E942F
:1028D0000912DF91CF910895AF92BF92CF92DF920C
:1028E000EF92FF920F931F93CF93DF938C01D62E1D
:1028F000C72EB42EA22E862F972F6AEA71E00E946F
:10290000B301EC018D2D9C2D6FE270E00E94A801B7
:10291000209779F07C010894E11CF11CE114F1048A
:1029200041F09E012E5F822F8E19D80112968C9352
:102930000FC0AD2DBC2DFD0101900020E9F7ED1970
:10294000EF5FD8011296EC932D2D3C2DC9017C012F
:10295000F801838194810E947E15D80112968C9192
:1029600090E00E94E114FC01D80114969C938E9390
:10297000139712968C911297E80FF11D10821396FF
:10298000ED91FC911497B0821396ED91FC91149700
:10299000A18213968D919C91149712964C9150E0C0
:1029A000425050400296B7010E949901DF91CF91A9
:1029B0001F910F91FF90EF90DF90CF90BF90AF905D
:1029C00008950F931F93CF93DF93BC01823091053D
:1029D00010F462E070E0E0919D04F0919E0440E00C
:1029E00050E0A0E0B0E024C0808191818617970775
:1029F000D0F08617970771F482819381109729F0A0
:102A000013969C938E9312972CC090939E04809360
:102A10009D0427C04115510519F08417950718F436
:102A20008D01AC01EF01DF01828193819C01F901ED
:102A30003097D1F641155105F9F0CA01861B970B65
:102A40008430910580F48A819B810115110521F064
:102A5000F8019383828304C090939E0480939D0425
:102A6000FE01329645C0FE01E80FF91F6193719394
:102A70000297998388833CC080919B0490919C0429
:102A8000892B41F48091B4019091B50190939C04FD
:102A900080939B044091B6015091B70141155105B7
:102AA00041F44DB75EB78091B2019091B301481BDC
:102AB000590B20919B0430919C0424173507B0F4E6
:102AC000CA01821B930B8617970780F0AB014E5FFC
:102AD0005F4F8417950750F0420F531F50939C048B
:102AE00040939B04F9016193719302C0E0E0F0E030
:102AF000CF01DF91CF911F910F910895CF93DF9375
:102B00009C01009709F48FC0EC0122971B821A8266
:102B100060919D0470919E046115710581F4888116
:102B20009981820F931F20919B0430919C04281758
:102B3000390739F5D0939C04C0939B0474C0DB0122
:102B400040E050E0AC17BD0708F1BB83AA83FE014B
:102B500021913191E20FF31FAE17BF0779F48D91E8
:102B60009C911197280F391F2E5F3F4F398328837F
:102B700012968D919C9113979B838A8341155105E1
:102B800071F4D0939E04C0939D044DC012968D9114
:102B90009C911397AD01009711F0DC01D3CFDA01BE
:102BA0001396DC93CE931297FA0121913191E20FA3
:102BB000F31FCE17DF0769F488819981280F391F29
:102BC0002E5F3F4FFA01318320838A819B8193835B
:102BD0008283E0E0F0E0DB0112968D919C911397E7
:102BE000009719F0BC01FD01F6CFAB014E5F5F4FBE
:102BF000DB018D919C91840F951F20919B04309156
:102C00009C042817390779F4309729F410929E0410
:102C100010929D0402C01382128242505040509381
:102C20009C0440939B04DF91CF9108951F920F92D3
:102C30000FB60F9211242F933F938F939F93AF93CF
:102C4000BF938091320490913304A0913404B091E9
:102C50003504309136040196A11DB11D232F2D5F3F
:102C60002D3720F02D570196A11DB11D209336045C
:102C70008093320490933304A0933404B0933504CA
:102C800080912E0490912F04A0913004B0913104D2
:102C90000196A11DB11D80932E0490932F04A09343
:102CA0003004B0933104BF91AF919F918F913F91C8
:102CB0002F910F900FBE0F901F9018958FB7F8941B
:102CC0002091320430913304409134045091350402
:102CD0008FBFB901CA010895019739F0880F991F74
:102CE000880F991F02970197F1F70895789484B59A
:102CF000826084BD84B5816084BD85B5826085BDF8
:102D000085B5816085BDEEE6F0E0808181608083DD
:102D1000E1E8F0E0108280818260808380818160C0
:102D20008083E0E8F0E0808181608083E1E9F0E089
:102D3000808182608083808181608083E0E9F0E02F
:102D4000808181608083E1ECF0E080818460808319
:102D5000808182608083808181608083E3ECF0E009
:102D6000808181608083E0ECF0E0808182608083FC
:102D7000E2ECF0E0808181608083EAE7F0E080812E
:102D80008460808380818260808380818160808391
:102D90008081806880830895EF92FF920F931F9344
:102DA000CF93DF937B018C013FB7F89480912E0481
:102DB00090912F04A0913004B091310426B5A89BC6
:102DC00005C02F3F19F00196A11DB11D3FBFBA2FBD
:102DD000A92F982F8827820F911DA11DB11D52E0A8
:102DE000880F991FAA1FBB1F5A95D1F7EC0130C05D
:102DF0000E947D1E3FB7F89480912E0490912F047D
:102E0000A0913004B091310426B5A89B05C02F3F96
:102E100019F00196A11DB11D3FBFBA2FA92F982F00
:102E20008827820F911DA11DB11D32E0880F991FC7
:102E3000AA1FBB1F3A95D1F78C1B9D0B885E934050
:102E4000B8F20894E108F10801091109C851DC4FF2
:102E5000E114F1040105110559F6DF91CF911F919D
:102E60000F91FF90EF900895823108F08251E82F82
:102E7000F0E0E05DFE4FE49120917B008E2F86957F
:102E80008695869590E08170907035E0880F991F47
:102E90003A95E1F72F7D282B20937B00E7708091F6
:102EA000B8018295880F880F807C8E2B80937C00E0
:102EB00080917A00806480937A0080917A0086FD08
:102EC000FCCF2091780040917900942F80E030E091
:102ED000282B392BC90108951F93CF93DF93182F07
:102EE000EB0161E00E941118209709F48FC0CF3FD9
:102EF000D10509F48EC0E12FF0E0EE5EFE4F849123
:102F0000883009F440C0893070F4823019F1833080
:102F100020F4813009F077C018C0833001F184308B
:102F200009F071C026C08B3009F44BC08C3030F4EE
:102F3000893099F18A3009F066C039C08C3009F4C3
:102F40004DC08E3009F05FC051C084B5806884BD2B
:102F5000C7BD63C084B5806284BDC8BD5EC08091BA
:102F60008000806880938000D0938900C09388009F
:102F700054C080918000806280938000D0938B0049
:102F8000C0938A004AC0809190008068809390002E
:102F9000D0939900C093980040C0809190008062C7
:102FA00080939000D0939B00C0939A0036C080918C
:102FB0009000886080939000D0939D00C0939C0007
:102FC0002CC08091C00080688093C0008091C000B8
:102FD0008F7B8093C000C093CF001FC08091C00042
:102FE00080628093C000C093D00017C08091C2005F
:102FF00088608093C2008091C2008B7F8093C20062
:10300000C093D2000AC0C038D1051CF4812F60E003
:1030100002C0812F61E00E949E18DF91CF911F9125
:103020000895CF93DF93482F50E0CA018C509F4FF3
:10303000FC0134914A525F4FFA018491882369F16F
:1030400090E0880F991FFC01E455FF4FA591B491C2
:10305000FC01E654FF4FC591D491662351F42FB77C
:10306000F8948C91932F909589238C938881892350
:103070000BC0623061F42FB7F8948C91932F909528
:1030800089238C938881832B88832FBF06C09FB7A9
:10309000F8948C91832B8C939FBFDF91CF910895EF
:1030A000883071F1893068F4823031F1833020F456
:1030B000813009F042C01DC0833089F08430E9F5C9
:1030C00012C08B3059F18C3028F48930E9F08A3005
:1030D000A1F51EC08C3031F18E3079F529C0809178
:1030E00080008F7703C0809180008F7D8093800067
:1030F000089584B58F7702C084B58F7D84BD08950F
:10310000809190008F7707C0809190008F7D03C0E1
:1031100080919000877F8093900008958091C000F7
:103120008F7703C08091C0008F7D8093C000089589
:103130008091C200877F8093C2000895FF920F9311
:103140001F93F62E482F50E0CA018E5E9E4FFC0161
:103150002491CA018C509F4FFC0114914A525F4F39
:10316000FA0104910023C9F0222319F0822F0E9452
:103170005018E02FF0E0EE0FFF1FE654FF4FA5912F
:10318000B4919FB7F894FF2021F48C91109581237E
:1031900002C08C91812B8C939FBF1F910F91FF9048
:1031A00008950F931F93482F50E0CA018E5E9E4FE3
:1031B000FC012491CA018C509F4FFC0104914A529A
:1031C0005F4FFA011491112319F420E030E015C08B
:1031D000222319F0822F0E945018812F90E0880F2F
:1031E000991F88539F4FFC01A591B4918C9120E0C9
:1031F00030E0802311F021E030E0C9011F910F91F0
:103200000895FC012485858530E0205C3F4F281B14
:1032100031092F733070C9010895FC0194858585AB
:10322000981719F42FEF3FEF06C08585E80FF11DC1
:103230008685282F30E0C9010895DC011C969C91F9
:103240001C971D968C911D97981719F42FEF3FEF3F
:1032500010C01D968C911D97FD01E80FF11D9685FC
:103260001D968C911D978F5F8F731D968C93292FC0
:1032700030E0C901089510923A041092390488EEA2
:1032800093E0A0E0B0E080933B0490933C04A093D3
:103290003D04B0933E048FEE91E090933804809308
:1032A000370408950F931F93DF93CF930F92CDB7F9
:1032B000DEB78C0169838091C001882369F083E0C7
:1032C000BE016F5F7F4F41E050E00E94BB1B1816AC
:1032D000190614F49C0107C081E090E0F801938383
:1032E000828320E030E0C9010F90CF91DF911F91E0
:1032F0000F91089583E00E94921B08950F931F93EE
:10330000CF93DF938C01FC010FC082E00E94781AFA
:103310009C01FFEF8F3F9F0799F0F8018485E80F2C
:10332000F11D2687F801C4878485C82FD0E0219637
:10333000CF73D070F801858590E0C817D90729F7B9
:10334000DF91CF911F910F910895FC0180818E5FD5
:10335000808380E86CE371E042E450E00E94911ABF
:103360000895FC0181819081913A59F4813209F0EC
:103370004CC080E069EB71E047E050E00E94911A98
:1033800042C0913209F041C0803239F489EB91E0BA
:1033900067E070E00E947A1B36C0823209F035C0C7
:1033A00082818093C0018091B9019091BA01A0916E
:1033B000BB01B091BC01805B9440A040B04019F5C6
:1033C0008091C00180FD12C087E797E790930108C4
:1033D000809300082BE088E190E00FB6F894A89560
:1033E000809360000FBE209360000DC088E10FB68F
:1033F000F89480936000109260000FBEA895109220
:1034000001081092000881E0089580E00895CF93AC
:10341000DF930E9476168DE894E00E949D1B0E9427
:103420003504C0E0D0E00E9458062097E1F30E94E6
:103430000000F9CFCF92DF92EF92FF920F931F938C
:10344000CF93DF937C016B018A01C0E0D0E00FC015
:10345000D6016D916D01D701ED91FC910190F08144
:10346000E02DC7010995C80FD91F01501040011563
:10347000110571F7CE01DF91CF911F910F91FF9050
:10348000EF90DF90CF900895282F809187048823B4
:10349000C1F057FF1AC015C02898909386048091F8
:1034A000F1008193E217F307B9F74115510539F09F
:1034B0008091F200882319F48BE68093E800AFBF77
:1034C00002C04FEF5FEFCA010895AFB7F8942770BD
:1034D0002093E9008091F200282F30E0241735076F
:1034E0000CF4A901FB019B01240F311D94E6DACFF6
:1034F000DF93CF930F92CDB7DEB7BE016F5F7F4FE3
:1035000041E050E00E94441A019719F02FEF3FEF7D
:1035100003C08981282F30E0C9010F90CF91DF913E
:103520000895FF920F931F93F82E142F052F4091AB
:103530008A0450918B04212F302FC901DC01FB013B
:103540006EEF29C0F7FE02C0949101C090812091D6
:1035500088043091890424173507ACF48091E80081
:103560008570E1F38091E80082FF03C02FEF3FEF09
:1035700017C09093F100C90101968F739070892B49
:1035800011F46093E8002F5F3F4F3093890420933C
:103590008804119731961097A9F6812F902F9C01DE
:1035A000C9011F910F91FF9008951F93782FE92F64
:1035B000162F2091880430918904A0918A04B0913B
:1035C0008B042A173B07C4F48091E8008570E1F36F
:1035D0008091E80082FD16C0812F90E00196880F4F
:1035E000991F8093F100C90101968F739070892B08
:1035F00019F48EEF8093E8002F5F3F4F30938904DA
:103600002093880420918804309189042A173B076D
:10361000A4F48091E8008570E1F38091E80082FDD8
:1036200012C083E08093F100C90101968F739070FE
:10363000892B19F48EEF8093E8002F5F3F4F309372
:103640008904209388044091880450918904872F2D
:103650009E2FFC0170E06EEF43C094914A175B0708
:10366000A4F48091E8008570E1F38091E80082FF86
:1036700002C020E00DC09093F100CA0101968F7343
:103680009070892B11F46093E8004F5F5F4F21E049
:103690004A175B07A4F48091E8008570E1F38091FC
:1036A000E80082FF02C080E00DC01092F100CA0164
:1036B00001968F739070892B11F46093E8004F5F2F
:1036C0005F4F81E0319690E030E082239323892B95
:1036D00031F4509389044093880480E009C07F5FEF
:1036E000711708F4BACF509389044093880481E09D
:1036F0001F9108959C018091E80082FFFCCFF901A1
:10370000260F311D03C08091F1008193E217F3076A
:10371000D1F7289884E6809386048BEF8093E800A5
:10372000CB0108958093E9008091F200882319F07D
:103730008AE38093E800089508951092870481E059
:103740008093D70080EA8093D80082E189BD09B4D4
:1037500000FEFDCF61E070E080E090E00E94CC16BA
:1037600080E98093D8008CE08093E2001092E00022
:10377000559A209A08955F926F927F928F929F92AE
:10378000AF92BF92CF92DF92EF92FF920F931F936F
:10379000CF93DF93E82E842E752E809187048823A3
:1037A00071F18B01242F352FC901EC01AAEFFA2EFC
:1037B000F7E09F2E9E20E0E45E2E8E2D90E070E2DA
:1037C000A72EB12CA822B9226AE3662E50E4C52E9A
:1037D000D12CC822D92258C09FB7F8949092E90002
:1037E0008091E80085FD02C020E004C08091F200D5
:1037F000252D281B9FBF222361F4FA9419F42FEF83
:103800003FEF4DC061E070E080E090E00E94CC1698
:103810003BC0822F90E0C817D9070CF42C2FC21B95
:10382000D1094FB7F8949092E900A114B10421F4A2
:1038300006C01092F10021502223D9F719C0E7FCED
:1038400003C0F801922F10C0C801322F06C0FC013E
:103850000196E491E093F10031503323C1F706C0A3
:1038600081918093F10091509923D1F7020F111D9E
:103870008091E80085FF05C0209729F4C114D10488
:1038800011F06092E8004FBF209709F0A5CF5D9836
:1038900084E680938504282D372DC9019C01C90138
:1038A000DF91CF911F910F91FF90EF90DF90CF901C
:1038B000BF90AF909F908F907F906F905F90089592
:1038C0001F920F920FB60F9211242F933F934F9395
:1038D0005F936F937F938F939F93AF93BF93EF9378
:1038E000FF938091E1001092E100982F83FF0FC0B9
:1038F0001092E90081E08093EB001092EC0082E3EB
:103900008093ED001092870488E08093F00092FF8E
:1039100034C083E08093E9008091F200882319F09D
:103920008AE38093E8008FB7F89492E09093E900DF
:103930009091F2008FBF992321F087E394E00E94D9
:103940007E1980918504882351F0809185048150EF
:103950008093850480918504882309F45D9A809181
:103960008604882351F080918604815080938604D8
:1039700080918604882309F4289AFF91EF91BF91E2
:10398000AF919F918F917F916F915F914F913F91F7
:103990002F910F900FBE0F901F9018950F931F93AC
:1039A000DF93CF930F92CDB7DEB719828E010F5FF1
:1039B0001F4FC8010E94A519C8010E94B51F898127
:1039C00090E00F90CF91DF911F910F9108951F927A
:1039D0000F920FB60F921124EF92FF921F932F9325
:1039E0003F934F935F936F937F938F939F93AF9387
:1039F000BF93EF93FF93DF93CF93CDB7DEB761977C
:103A0000DEBFCDBF1092E9008091E80083FF13C1B3
:103A1000FE0131969E01275F3F4F03C08091F10068
:103A20008193E217F307D1F7289884E68093860400
:103A300082EF8093E800998197FF05C08091E800AC
:103A400080FFFCCF03C08EEF8093E800292F30E089
:103A5000C90180769070892B09F0C6C08A818823BD
:103A600029F41092F1001092F100DAC0813009F4CB
:103A7000D7C0833009F4D4C0853049F48091E80080
:103A800080FFFCCF8B8180688093E300C9C08630C3
:103A900009F080C01C81EF80F8841230C1F51092CB
:103AA000E900109289041092880410928B041092FD
:103AB0008A040E94CE1C99E0FE013996DF01292F6D
:103AC0001D922A95E9F799871A8791E09E8790E8D9
:103AD000988B9AEF998B2091880430918904275F05
:103AE0003F4F3C872B878D871092E9001092890405
:103AF00010928804F0928B04E0928A0480E0BF0167
:103B000049E050E00E94911A0E94CE1C89C0109298
:103B1000E9001092890410928804F0928B04E092DC
:103B20008A04123241F482E290E00E94AD1F892B98
:103B300009F47AC075C0113079F488E0E816F10410
:103B400019F481E080938C0480918C04882309F01F
:103B50006FC0EAE9F1E017C0133009F065C08B814E
:103B6000882319F4EEE7F1E00EC0823019F482E800
:103B700091E005C0813009F057C08EE891E06BE01C
:103B80000E94D51A4BC0449180E8BF0150E00E94CA
:103B9000911A46C0873009F447C0883021F481E08B
:103BA0008093F1003DC08930D9F523703070232B0C
:103BB000D9F5EFEBF1E091E031E026E39093E900F5
:103BC0003093EB0084918093EC002093ED009F5F95
:103BD0003196953099F78EE78093EA001092EA00CB
:103BE0008B81809387041CC08F8198851092E90097
:103BF000109289041092880490938B0480938A0415
:103C00008D81882329F4CE0101960E94B11906C046
:103C1000823051F4CE0101960E947E1E882321F04D
:103C20008EEF8093E80007C081E28093EB0003C031
:103C3000ECEAF1E0A8CF6196DEBFCDBFCF91DF9176
:103C4000FF91EF91BF91AF919F918F917F916F9174
:103C50005F914F913F912F911F91FF90EF900F90A7
:103C60000FBE0F901F9018952F923F924F925F9228
:103C70006F927F928F929F92AF92BF92CF92DF927C
:103C8000EF92FF920F931F93DF93CF93CDB7DEB7E1
:103C90003B014C0119012A016D897E898F89988D1C
:103CA0006A197B098C099D09621A730A840A950AAC
:103CB000A40193010E94C11FE218F3080409150929
:103CC000A80197010E9421202A0D3B1D4C1D5D1D5E
:103CD000B901CA01CF91DF911F910F91FF90EF9031
:103CE000DF90CF90BF90AF909F908F907F906F901C
:103CF0005F904F903F902F9008950895FC0191811F
:103D00008081813A31F4913089F080E0933089F4F8
:103D10000DC0813269F49B3021F482818093C1010E
:103D200005C09A3029F482818093C20181E0089510
:103D300080E00895EF92FF920F931F938C01E62E7F
:103D4000DC01ED91FC910480F581E02D0995F82EC0
:103D5000D801ED91FC910680F781E02DC8016E2D10
:103D600009958F2D90E01F910F91FF90EF9008958E
:103D700010928E04109292041092910481E092E0CD
:103D80009093900480938F040895EF92FF920F9385
:103D90001F93DF93CF930F92CDB7DEB789838B014B
:103DA0007A0184E0BE016F5F7F4F41E050E00E94E6
:103DB000BB1B84E4B801A7010E94BB1B0F90CF91ED
:103DC000DF911F910F91FF90EF90089582E048E0FE
:103DD00050E00E94C51E0895FC01168217821086CD
:103DE00011861286138614823496BF010E94E61E45
:103DF0000895DC01683810F0685829C0E62FF0E01B
:103E000067FF13C0E058F04081E090E002C0880FE7
:103E1000991FEA95E2F7809514962C911497282320
:103E200014962C93149760E012C0EF5BFD4F6491E1
:103E3000662319F420E030E01DC067FF08C0149627
:103E40008C9114978D7F14968C9314976F77FD0146
:103E500090E0662321F08681861709F416829F5F21
:103E600031969630B1F7CD011496BD010E94E61E41
:103E700021E030E0C9010895CF93DF93DC01683879
:103E800010F0685825C0E62FF0E067FF12C0E05838
:103E9000F04081E090E002C0880F991FEA95E2F7B8
:103EA00014962C911497282B14962C93149760E059
:103EB0000FC0EF5BFD4F64916623D9F167FF08C027
:103EC00014968C911497826014968C9314976F7744
:103ED00016968C9116978617A9F117968C911797BD
:103EE000861781F118968C911897861759F11996B3
:103EF0008C911997861731F11A968C911A9786171B
:103F000009F11B968C911B978617E1F0ED01E0E01B
:103F1000F0E09E2F8E81882321F4EA0FFB1F668339
:103F200006C09F5F31962196E630F10591F79630F5
:103F300049F481E090E013969C938E93129720E0D1
:103F400030E007C0CD011496BD010E94E61E21E0BD
:103F500030E0C901DF91CF91089580E863EC71E012
:103F600045E650E00E94911A0895FC0180818F5F20
:103F7000808380E868E272E049E150E00E94911A93
:103F80000895629FD001739FF001829FE00DF11DA3
:103F9000649FE00DF11D929FF00D839FF00D749FC3
:103FA000F00D659FF00D9927729FB00DE11DF91F6F
:103FB000639FB00DE11DF91FBD01CF0111240895CC
:103FC000991B79E004C0991F961708F0961B881F6B
:103FD0007A95C9F78095089597FB092E07260AD090
:103FE00077FD04D049D006D000201AF47095619571
:103FF0007F4F0895F6F7909581959F4F0895A1E220
:104000001A2EAA1BBB1BFD010DC0AA1FBB1FEE1F52
:10401000FF1FA217B307E407F50720F0A21BB30B9D
:10402000E40BF50B661F771F881F991F1A9469F719
:1040300060957095809590959B01AC01BD01CF0175
:10404000089597FB092E05260ED057FD04D0D7DF23
:104050000AD0001C38F450954095309521953F4F7B
:104060004F4F5F4F0895F6F7909580957095619545
:104070007F4F8F4F9F4F0895AA1BBB1B51E107C075
:10408000AA1FBB1FA617B70710F0A61BB70B881FE8
:10409000991F5A95A9F780959095BC01CD01089577
:1040A000EE0FFF1F0590F491E02D0994F894FFCFD7
:1040B000556E6B6E6F776E2070696E206D6F6465E4
:1040C000007370695F656469742E696E6F004932B0
:1040D000432052656164204572726F723A20546FBA
:1040E0006F206D616E7920627974657320726563EB
:1040F00065697665640049324320526561642045F4
:1041000072726F723A20546F6F2066657720627901
:104110007465732072656365697665640031302D5E
:104120006269742061646472657373696E67206D7F
:104130006F6465206973206E6F74207965742073D5
:104140007570706F7274656400746F6F206D616E4E
:10415000792071756572696573002E63707000FA5D
:1041600000FF80009F0400000100E100000000004B
:10417000000101000000000C0CDB0B940B9D0BB246
:104180000BC30B00000000D7101A1A7C109A108A7B
:1041900010C210DC0E1511B90FB60F00000000524E
:1041A000191A1A01191D190D197A197E1900000022
:0C41B000009A1E1A1A3C1FF91EEC1E009B
:00000001FF
