:1000000032C00000000000000000000000000000FE
:1000100000000000000000000000000000000000E0
:1000200000000000000000003DC000007EC0000095
:1000300000000000000000000000000000000000C0
:1000400000000000000000000000000000000000B0
:10005000000000000000000000000000C2C200001C
:10006000000045C2E9C111241FBECFEFDAE0CDBFC9
:10007000DEBFEDEFF3E407E4A0E0B1E0ED35F0071B
:100080001CF425902D92FACFA0E6B4E00AE0A0314E
:10009000B00714F41D92FBCF0E94F50D78940E94D6
:1000A0005907E1CF1F920F920FB60F9211248F9331
:1000B0009F938091E1001092E100982F83FF13C07D
:1000C0001092E90081E08093EB001092EC0082E155
:1000D0008093ED0088E08093F0001092EF01109281
:1000E000F1011092F00192FF19C08091EF01882375
:1000F00079F08091F901882359F081508093F901BA
:10010000882331F484E08093E9008AE38093E80057
:1001100083E08093E90084E08093F0009F918F91C9
:100120000F900FBE0F901F9018951F920F920FB651
:100130000F9211240F931F932F933F934F935F932D
:100140006F937F938F939F93AF93BF93EF93FF939F
:100150008091F40083FF14C083E08093E9008091D4
:10016000E80082FF08C082E394E06FE873E047E0B4
:1001700050E00E947C068091E800887F8093E80030
:100180001092E9008091E80083FF40C14091F100A6
:100190003091F1008091F100682F70E02091F10022
:1001A000922F80E0682B792B8091F100A82FB0E08E
:1001B0002091F100922F80E0A82BB92B1091F10033
:1001C0000091F10082EF8093E800363009F05AC0C8
:1001D00023E231E4A90145505040F9013797859158
:1001E00094918617970701F5FA01859194918A17E2
:1001F0009B07D1F49A012E5F3F4FF90165917491ED
:100200002E5F3F4FF9014491212F30E0902F80E085
:10021000282B392B2F3F310519F010F02FEF30E04C
:10022000241758F4422F09C0295F3F4F495F5F4FA1
:10023000F1E42D343F0789F6E9C05EEF8091E800D4
:10024000282F30E0C90185709070892BB9F322FD09
:10025000E0C0342F413108F030E1232FCB0106C03C
:10026000FC010196E491E093F10021502223C1F7B3
:10027000630F711D431B5093E8004423F9F630319E
:10028000E9F2C7C0353061F48EEF8093E8008091C9
:10029000E80080FFFCCF862F80688093E300B9C020
:1002A000393061F5442309F0B1C06093EF01109239
:1002B000F1011092F0011092F9018EEF8093E800A5
:1002C00086E491E421E02093E900FC010196E491A9
:1002D000E093EB00EE2369F0AC014F5F5F4FFC0150
:1002E00084918093EC00CA010196FA013491309315
:1002F000ED002F5F253039F78EE183C0383061F48F
:10030000403809F083C08091E80080FFFCCF8091E5
:10031000EF018093F10052C0313289F4413A09F083
:1003200075C08091E80080FFFCCFE2EFF1E08191A1
:100330008093F10081E0E93FF807C9F73FC0303210
:10034000A1F4413209F062C08091E80082FFFCCF45
:10035000E2EFF1E08091F100819381E0E93FF8075D
:10036000C9F78BEF8093E80029C0323261F4413243
:1003700009F04CC07093F1016093F0018091E800A6
:1003800080FFFCCF1BC03323E9F48091E80080FF9D
:10039000FCCF423811F080E00DC0A093E9008091BD
:1003A000EB0090E025E0969587952A95E1F781701E
:1003B0001092E9008093F1001092F1008EEF80938B
:1003C000E80027C0313011F0333001F54230F1F44C
:1003D000672BE1F42A2F2F77822F81508430B0F4DD
:1003E0008EEF8093E8002093E900333079F089E1C3
:1003F0008093EB0081E090E002C0880F991F2A955E
:10040000E2F78093EA001092EA0003C081E2809351
:10041000EB00FF91EF91BF91AF919F918F917F91F1
:100420006F915F914F913F912F911F910F910F907D
:100430000FBE0F901F9018951F920F920FB60F923C
:1004400011242F933F934F935F936F937F938F93D9
:100450009F93AF93BF93EF93FF9320914D073091FC
:100460004E0760914F0770915007C9018095909594
:10047000860F971F8F739070892B31F481E090E085
:1004800090939207809391074091CE0080919107BD
:1004900090919207892B61F4F901E55BF84F46834F
:1004A000C90101968F73907090934E0780934D070A
:1004B000261B370B2F733070232B41F48CE394E011
:1004C0006FE873E047E050E00E947C06FF91EF91F7
:1004D000BF91AF919F918F917F916F915F914F915C
:1004E0003F912F910F900FBE0F901F9018951F9264
:1004F0000F920FB60F9211242F933F934F935F9358
:100500006F937F938F939F93AF93BF93EF93FF93DB
:100510006EB56530F1F42091ED093091EE098091CE
:10052000EB099091EC09821B930B8F709070892BD3
:1005300071F0F901EF52F64F868D8EBD2F5F3F4F60
:100540002F7030703093EE092093ED0939C01EBC36
:1005500037C02091D3093091D4094091D5095091E9
:10056000D609C90180959095840F951F8F70907062
:10057000892B31F481E090E09093E8098093E709BA
:100580008091E7099091E809892B61F4F901EF5214
:10059000F64F6683C90101968F7090709093D409CD
:1005A0008093D309241B350B2F703070232B41F41B
:1005B00086E494E06FE873E047E050E00E947C0638
:1005C000FF91EF91BF91AF919F918F917F916F912B
:1005D0005F914F913F912F910F900FBE0F901F9001
:1005E00018951F920F920FB60F9211242F933F93DD
:1005F0004F935F936F937F938F939F93AF93BF932B
:10060000EF93FF938091010A9091020AA091030A4F
:10061000B091040A0196A11DB11D8093010A909327
:10062000020AA093030AB093040A87E793E060E00C
:1006300070E047E050E00E94221FFF91EF91BF91D0
:10064000AF919F918F917F916F915F914F913F916A
:100650002F910F900FBE0F901F9018950000000073
:100660000707070700000000000007070707000052
:100670000700070700000000000000000707000057
:10068000070707070000000000000000000000004E
:10069000000000000000000000000000000000005A
:1006A000000000000000000000000000E62FF72F0F
:1006B000A82FB92F03C0C89531960D9241505040D4
:1006C000D0F7089587E793E060E070E047E050E0FE
:1006D0000E94221F089583B7817F83BF83B7816003
:1006E00083BF889583B78E7F83BF089500D000D0E5
:1006F0008CE191E0EDB7FEB79283818385E491E0D0
:10070000948383830E94AA1B0F900F900F900F90E9
:100710000E94711F0E946B03FBCFBF92CF92DF92AA
:10072000EF92FF920F931F93CF93DF938B019C0166
:10073000609164047091650484E06436780709F47C
:1007400075C0EB012697A885B985EE81FF81B3833B
:10075000A283ED93FC937F836E83798768872097CC
:1007600009F464C08091010A9091020AA091030AE1
:10077000B091040A800F911FA21FB31F8883998331
:10078000AA83BB835D834C83BFB6F894E091600479
:10079000F091610484E0E036F80729F47383628302
:1007A000FF83EE833BC0DF0124C0E880F9800A812B
:1007B0001B812D913D914D915C911397C701821B37
:1007C000930B97FF0AC02E193F09400B510B2D9335
:1007D0003D934D935C93139717C0E21AF30A040BF1
:1007E000150BE882F9820A831B8316960D90BC9143
:1007F000A02D169786E0C82ED12CCA0EDB1E80E6EF
:10080000C81684E0D80689F61896ED91FC911997E0
:1008100019967C936E931897DF82CE82F987E887CA
:1008200071836083BFBE20E030E002C024EF3FEF61
:10083000C901DF91CF911F910F91FF90EF90DF9051
:10084000CF90BF90089500D000D081E591E0EDB742
:10085000FEB79283818385E591E0948383830E9430
:10086000AA1B80E694E090936104809360049093C7
:1008700063048093620484E694E09093650480931B
:1008800064049093670480936604AEE6B4E040E0AD
:1008900050E00F900F900F900F90782F692FCA01A2
:1008A000880F991F9A01E3E0220F331FEA95E1F7C1
:1008B000820F931F82599B4FE0916604F091670469
:1008C00090936704809366047C9311966C931197C0
:1008D0001396FC93EE931297918380834F5F5F4F43
:1008E0001A9640325105D9F680E090E00895CF92F3
:1008F000DF92EF92FF920F931F93CF93DF93C091FC
:100900006004D091610426970E811F81065010402B
:10091000B4E6CB2EB4E0DB2E4EC08091010A90915C
:10092000020AA091030AB091040A28813981821B2E
:10093000930B97FD4BC06C817D818BE793E047E083
:1009400050E00E94221FEE81FF8184E0E036F8072C
:10095000A9F036972091010A3091020A4091030ACA
:100960005091040A80819181A281B381820F931FEB
:10097000A41FB51F80839183A283B383A885B98503
:10098000EE81FF81B383A283ED93FC93E091640435
:10099000F0916504F382E282FF83EE83D986C886F4
:1009A000F0926504E0926404F80186819781E80181
:1009B0008C0106501040A6E0EA2EF12CEC0EFD1E34
:1009C000F0E6EF16F4E0FF0609F0A7CFDF91CF9134
:1009D0001F910F91FF90EF90DF90CF900895CF93EC
:1009E000DF93FC01C481D581EA81FB818E819F81E7
:1009F00009959F838E8388859985AA85BB852C85DB
:100A00003D854E855F85820F931FA41FB51F8C8780
:100A10009D87AE87BF872091010A3091020A4091DD
:100A2000030A5091040AB901681B790B77FD0CC0C9
:100A30002F5F3F4F4F4F5F4F2C873D874E875F871C
:100A400021503040404050406C857D858E859F858B
:100A5000621B730B840B950BAE010E948D03DF911B
:100A6000CF910895CF92DF92EF92FF920F931F9351
:100A7000CF93DF93E090010AF090020A0091030AFD
:100A80001091040AC0E5D4E08DE6C82E81E0D82E8E
:100A900018C000D000D0EDB7FEB7D282C1828881E5
:100AA0009981948383830E94AA1BEC81FD810F901E
:100AB0000F900F900F90309719F08E819F810995BC
:100AC0006096F4E0C036DF0720F3C0E5D4E01DC037
:100AD0006C857D858E859F856E0D7F1D801F911F86
:100AE0006C597F4F8F4F9F4F6C877D878E879F8775
:100AF0006E197F09800B910BAE010E948D0397FF49
:100B000003C02FEF3FEF07C0609684E0C036D807E0
:100B1000F8F220E030E0C901DF91CF911F910F91F1
:100B2000FF90EF90DF90CF900895DC011696ED9145
:100B3000FC911797309719F489E090E00FC0129656
:100B40008C91129780FF08C00280F381E02D028013
:100B5000F381E02D309749F481E090E09093D00943
:100B60008093CF092FEF3FEF10C0CD0109959C0175
:100B700097FD03C080E090E004C088279927821B7E
:100B8000930B9093D0098093CF09C9010895DC019C
:100B90001696ED91FC911797309719F489E090E043
:100BA0000FC012968C91129781FF08C00280F381CA
:100BB000E02D0480F581E02D309749F481E090E04C
:100BC0009093D0098093CF092FEF3FEF10C0CD0154
:100BD00009959C0197FD03C080E090E004C0882740
:100BE0009927821B930B9093D0098093CF09C90159
:100BF0000895DC011696ED91FC911797309719F442
:100C000089E090E00AC00280F381E02D0084F18544
:100C1000E02D309749F481E090E09093D0098093E3
:100C2000CF092FEF3FEF0FC009959C0197FD03C03F
:100C300080E090E004C088279927821B930B909353
:100C4000D0098093CF09C9010895CF93DF93FC01A8
:100C5000C481D581CE010896AA85BB85E885F98532
:100C6000B383A283ED93FC93998788879B878A87B8
:100C7000EE81FF819F012A5F3F4F86819781821716
:100C8000930751F40280F381E02D0680F781E02D77
:100C9000309711F0CE0109951F821E82DF91CF910E
:100CA0000895CF93DF93EC018E819F81892B49F4C6
:100CB00089E090E09093D0098093CF092FEF3FEF28
:100CC00017C08A819B81019719F08BE893E002C0DD
:100CD00087E893E0BE0147E050E00E94221F87E9C9
:100CE00093E0BE0146E050E00E94221F20E030E089
:100CF000C901DF91CF910895CF92DF92EF92FF92D9
:100D00000F931F93CF93DF93FC016B017A016681F0
:100D1000778161157105A1F0EB0128978C010A5FBD
:100D20001F4F09C0C601BE01A7010E94221F0884EF
:100D3000D985C02D2897CE0108960817190791F775
:100D4000DF91CF911F910F91FF90EF90DF90CF90A7
:100D500008950F931F93CF93DF938C01C8E2D4E0E3
:100D60000AC068817981F801808191810E94531DB8
:100D7000892B39F02A96F4E0C035DF0790F3C0E004
:100D8000D0E0CE01DF91CF911F910F910895EF92A6
:100D9000FF920F931F93CF93DF93DC017B016115CB
:100DA000710529F0EEEAF5E020E030E017C086E1B9
:100DB00090E019C0808191813C96892B69F4E9010A
:100DC000CC0FDD1FC20FD31FCC0FDD1FCC0FDD1FDB
:100DD000C855DA4F79F405C02F5F3F4F20323105F7
:100DE00049F787E190E09093D0098093CF09C0E064
:100DF000D0E057C0B983A8835D834C83FB82EA822D
:100E0000CE010E94A9068C01009729F41F821E8240
:100E100086E090E0E8CF9F838E83DC0116968D916B
:100E20009C911797892B51F4C801069617969C93AD
:100E30008E93169719969C938E931897D8011296B5
:100E4000ED91FC9113970190F081E02D309739F0EE
:100E5000CE010995009719F01F821E82C4CFCE01E2
:100E60000896D8011696ED91FC911797938382838B
:100E7000F987E8870A5F1F4F1B870A8706501040D3
:100E8000F80197838683F1E0EF16F10419F083E807
:100E900093E002C08FE793E0BE0147E050E00E947C
:100EA000221FCE01DF91CF911F910F91FF90EF9004
:100EB000089580ED97E020E931E0F9013197F1F7ED
:100EC0000197D9F70E9476030895809129079091A0
:100ED0002A070E94950508958091290790912A0775
:100EE0000E94C7050895EF92FF920F931F93DF931F
:100EF000CF93CDB7DEB7A8970FB6F894DEBF0FBE7D
:100F0000CDBFDC0114960D911C91159780912B0794
:100F100090912C0708171907C9F481E080932D07D9
:100F200085E1E82EF12CEC0EFD1EC801B70144E16D
:100F300050E00E949505AC01181619060CF004C18A
:100F40008091CD099091CE09B701F3C0D8011696D2
:100F5000ED91FC9117978681978136968E179F07A2
:100F600009F4F2C08091290790912A070817190700
:100F700041F08091FF099091000A0817190709F0C4
:100F8000E3C080912807882351F08091FF09909158
:100F9000000A0817190719F0EE24FF240DC0C80134
:100FA000BE016F5F7F4F44E150E00E9495057C01D8
:100FB000181619060CF0C8C08091FF099091000A1C
:100FC0000817190709F066C0A0912907B0912A07F0
:100FD00020E030E0AE014F5F5F4F3AC0FA01E20F10
:100FE000F31F80818D3191F590E080912807813049
:100FF00009F091E0909328071696ED91FC911797D0
:1010000040815181913019F023E831E002C020E99C
:1010100031E000D000D000D0EDB7FEB7319686E9C0
:1010200091E0ADB7BEB712969C938E931197538300
:101030004283358324830E94AA1BEDB7FEB7369600
:101040000FB6F894FEBF0FBEEDBF07C02F5F3F4F36
:101050002E153F0514F4109709F680912D0788236B
:1010600061F080912B0790912C07009731F0BE0121
:101070006F5F7F4FA7010E94C705809128078130CD
:1010800009F462C08091290790912A07009709F01E
:101090004CC05AC080912807882309F04DC020E039
:1010A00030E0AE014F5F5F4F35C0FA01E20FF31F32
:1010B00080818A3A69F581E08093280700D000D0CA
:1010C00000D0ADB7BEB7119686E991E0EDB7FEB797
:1010D00092838183E0912907F0912A070680F781A6
:1010E000E02D8081918113969C938E93129780E9D5
:1010F00091E015969C938E9314970E94AA1B8DB72E
:101100009EB706960FB6F8949EBF0FBE8DBF05C062
:101110002F5F3F4F2E153F0544F280912807813005
:1011200099F08091CD099091CE09BE016F5F7F4FFC
:10113000A7010E94C70508C08BE993E060E070E05A
:1011400047E050E00E94221FA8960FB6F894DEBF39
:101150000FBECDBFCF91DF911F910F91FF90EF9008
:1011600008958091290790912A070E9451060895B9
:1011700082EB91E063E070E040E050E00E94C7063F
:1011800090932A0780932907892B99F010922807BA
:101190008BEB91E063E070E040E050E00E94C70616
:1011A00090932C0780932B07892B19F020E030E0D7
:1011B00002C02DEE3FEFC90108951F93CF93DF9337
:1011C000FC01162F8832910518F02AEE3FEF39C046
:1011D00068E070E00E943A2021E030E002C0220F77
:1011E000331F8A95E2F7CF0168E070E00E943A2051
:1011F000A62FB0E0822F8095ED01CC5CD84F4881BE
:1012000048234883FD01E75CF84F90819823908341
:10121000FD01E25CF84F50815823508310FF02C05B
:10122000422B488311FF05C0FD01E75CF84F922B6C
:10123000908317FF04C0A25CB84F522B5C9320E050
:1012400030E0C901DF91CF911F9108952F923F9215
:101250004F925F926F927F928F929F92AF92BF92C6
:10126000CF92DF92EF92FF920F931F93DF93CF9372
:1012700000D000D000D0CDB7DEB790902E07BFE2EF
:10128000AB2EB7E0BB2E40E050E020E030E0EE2493
:10129000FF24A3E2CA2ED12CF1E02F2E312C412CB9
:1012A000512C89010F5F1F4FD6018C90892D90E042
:1012B000022E02C0959587950A94E2F780FD09C039
:1012C00081E090E002C0880F991F2A95E2F7982AE2
:1012D0008EC0F5017081F82DF727F983F801E35CE2
:1012E000F84F20812A8361E01E821D82C8018D5C37
:1012F000984F9C838B83E8E36E2EE7E07E2E600E92
:10130000711E8A81862309F469C08981862309F4C4
:1013100065C0AB81BC818C91862371F1862F8723B8
:1013200059F58D819E818E0D9F1DFC0155E0F5952F
:10133000E7955A95E1F7EE0FFF1FEE0FFF1FED5BEC
:10134000F84F8F719070A201910104C0220F331FDA
:10135000441F551F8A95D2F7DA01C90120813181D6
:1013600042815381282B392B4A2B5B2B20833183DD
:101370004283538341E050E0D3018C91862371F185
:10138000862F872359F18D819E818E0D9F1DFC0133
:1013900035E0F595E7953A95E1F7EE0FFF1FEE0F73
:1013A000FF1FED5BF84F8F719070A201910104C097
:1013B000220F331F441F551F8A95D2F7DA01C90146
:1013C0002081318142815381282B392B4A2B5B2B81
:1013D000208331834283538341E050E08D819E819D
:1013E00001969E838D83089711F0660F8ACFD501F1
:1013F0008D925D01E8E0F0E0EE0EFF1E23E030E0AC
:10140000C20ED31E0530110511F098014ACF9092FB
:101410002E07452B41F08FE993E063E477E047E046
:1014200050E00E94221F26960FB6F894DEBF0FBE32
:10143000CDBFCF91DF911F910F91FF90EF90DF9083
:10144000CF90BF90AF909F908F907F906F905F9064
:101450004F903F902F9008958091EF0190E0089574
:101460008091F0019091F101089581E08093D7007F
:1014700080EA8093D80082E189BD09B400FEFDCFE7
:1014800080E98093D8001092E0001092EF01109252
:10149000F1011092F0018CE08093E2008091E10074
:1014A00090E083709070892BC9F380E090E00895FC
:1014B00080E090E00895EF92FF920F931F937A01DE
:1014C0008091EF01882319F4A5EFBFEF33C01FB758
:1014D000F89483E08093E9008091F200A0E0B0E00E
:1014E000482F50E003E011C00093E9008091E8002C
:1014F00085FD02C01FBF11C00093E9008091F1007B
:10150000FB01EA0FFB1F8083119697014E155F05C3
:101510000CF49A01A217B3073CF383E08093E9002F
:101520008091F200882329F48091E8008F778093DE
:10153000E8001FBFCD011F910F91FF90EF9008951C
:10154000CF93DF93EC018091EF01882309F41EC152
:101550009FB7F89484E08093E9008091FA01882392
:1015600041F08091E80085FD02C09FBF17C0109236
:10157000FA01392FB4E040E45AE3A5E000C19091AC
:10158000E400975E8091E80085FD15C03FBF809123
:10159000E400891731F481E08093FA012BEF3FEFEB
:1015A000F7C08091EF01882309F4F0C03FB7F894A9
:1015B000B093E900E7CF8091F200242F281B822FFF
:1015C00090E06817790708F4262F822F90E0813485
:1015D000910508F0C6C0835B9F4DFC01EE0FFF1F15
:1015E0000590F491E02D099489918093F1008991FF
:1015F0008093F10089918093F10089918093F100AB
:1016000089918093F10089918093F1008991809371
:10161000F10089918093F10089918093F100899183
:101620008093F10089918093F10089918093F1007A
:1016300089918093F10089918093F1008991809341
:10164000F10089918093F10089918093F100899153
:101650008093F10089918093F10089918093F1004A
:1016600089918093F10089918093F1008991809311
:10167000F10089918093F10089918093F100899123
:101680008093F10089918093F10089918093F1001A
:1016900089918093F10089918093F10089918093E1
:1016A000F10089918093F10089918093F1008991F3
:1016B0008093F10089918093F10089918093F100EA
:1016C00089918093F10089918093F10089918093B1
:1016D000F10089918093F10089918093F1008991C3
:1016E0008093F10089918093F10089918093F100BA
:1016F00089918093F10089918093F1008991809381
:10170000F10089918093F10089918093F100899192
:101710008093F10089918093F10089918093F10089
:1017200089918093F10089918093F1008991809350
:10173000F10089918093F10089918093F100899162
:101740008093F10089918093F10089918093F10059
:1017500089918093F10089918093F1008991809320
:10176000F10089918093F1008091E80085FD02C02D
:101770005093E800621B7109A093F9013FBF611506
:10178000710509F0FCCE20E030E002C025EF3FEF0C
:10179000C901DF91CF910895CF93DF93EA014115FD
:1017A000510559F48091EF01882381F08091F00177
:1017B0009091F10180FD0CC009C0CB01BA010E94DB
:1017C000A00A892B29F0CFEFDFEF02C0C5EFDFEFD2
:1017D000CE01DF91CF910895E2EEF0E08081877F26
:1017E0008083089583E090E09093CD008093CC00B7
:1017F0001092500710924F0710924E0710924D070B
:1018000088E98093C90080E090E0089580E090E04E
:10181000089520E030E00CC0FB01E20FF31FE081EF
:101820008091C80085FFFCCFE093CE002F5F3F4F33
:10183000241735078CF3CA010895E9ECF0E08081A4
:10184000877680830895CF93DF93CB0160914F0714
:101850007091500720E430E0261B370BC0914D07F4
:10186000D0914E07C20FD31FCF73D0704C175D07B6
:101870000CF4EA012C173D070CF4E901209719F448
:10188000C5EFDFEF27C06F5A784FAE010E94831D6E
:1018900020914F07309150072C0F3D1F2F73307050
:1018A0003093500720934F071092920710929107A0
:1018B00080914D0790914E07821B930B8F73907010
:1018C000892B41F08CE394E06FE873E047E050E04F
:1018D0000E947C06CE01DF91CF910895ECE7F0E005
:1018E00080818F738083808180648083EAE7F0E069
:1018F00080818760808380818F7780838FEF809362
:101900007E0080937D0080E090E00895DF92EF926A
:10191000FF920F931F93BC018830910508F046C0D9
:10192000E0909307F0909407009195071091960727
:10193000E1E0F0E002C0EE0FFF1F8A95E2F79F01A1
:10194000442737FD4095542FDA01C9018E219F218C
:10195000A023B1230097A105B10541F52E293F2908
:10196000402B512B20939307309394074093950776
:10197000509396079B01220F331F260F371F220F0C
:10198000331F2B513E4BA1F090917E008E2F8095FE
:10199000892380937E0080917C00807E80937C00F0
:1019A00080917C00862B80937C0002C020E030E098
:1019B000C9011F910F91FF90EF90DF900895CF9391
:1019C000DF93855E9144959587952BEA3AEA829F4D
:1019D000B001839F700D929F700D1124E1E0F0E043
:1019E000EF01062E02C0CC0FDD1F0A94E2F79E0124
:1019F00020953095442737FD4095542F80919307CB
:101A000090919407A0919507B09196078223932314
:101A1000A423B5238093930790939407A0939507ED
:101A2000B09396076830710534F480917E008C2B5A
:101A300080937E000CC020917D00CB01089702C0EE
:101A4000EE0FFF1F8A95E2F72E2B20937D00DF918A
:101A5000CF91089580917A00806480937A0080917C
:101A60007A0086FDFCCF8091780090E0A0E0B0E0A5
:101A700060917900362F20E0442737FD4095542FA0
:101A8000282B392B4A2B5B2BB901CA01089580E022
:101A900090E008950895CF93DF93EB01E091EB0977
:101AA000F091EC09E095F0958091ED099091EE09A7
:101AB000E80FF91FEF70F070E417F5070CF4AF01B1
:101AC0004115510519F445EF5FEF1CC060E070E06F
:101AD00016C08091EB099091EC09DC01AF52B64F32
:101AE000FE01E60FF71F20815E962C9301968F7002
:101AF00090709093EC098093EB096F5F7F4F6417B0
:101B000075073CF3CA01DF91CF910895CF93DF931E
:101B1000CB016091D5097091D60920E130E0261BF8
:101B2000370BC091D309D091D409C20FD31FCF7006
:101B3000D0704C175D070CF4EA012C173D070CF42C
:101B4000E901209719F4C5EFDFEF27C06952764FFE
:101B5000AE010E94831D2091D5093091D6092C0F2A
:101B60003D1F2F7030703093D6092093D509109205
:101B7000E8091092E7098091D3099091D409821B5A
:101B8000930B8F709070892B41F086E494E06FE89E
:101B900073E047E050E00E947C06CE01DF91CF91D8
:101BA0000895289A80E484B98CBD8CB580688CBD7A
:101BB00081ED99E060E070E04EE250E00E94CB1DC4
:101BC00088E084B91092D6091092D5091092D409F0
:101BD0001092D3091092EE091092ED091092EC09BF
:101BE0001092EB0980E090E00895E1E6F0E080E8F3
:101BF000808310820E94191D0E94AD1E0E942D1E1E
:101C000080E090E008950F931F930AE212E0C8016C
:101C100062E070E040E050E00E94C7069093CE0979
:101C20008093CD09C80161E070E040E050E00E947F
:101C3000C7069093000A8093FF0980E090E01F910F
:101C40000F910895CF93DF93EA01FC014481558100
:101C5000FA01E60FF71F85919591A591B4918883BC
:101C60009983AA83BB83232B19F424E030E00EC0B0
:101C7000FB013496E40FF51F85919591A591B491E0
:101C80008C839D83AE83BF8328E030E0C901DF9160
:101C9000CF910895CF93DF93EA01DC011696ED9181
:101CA000FC911797E60FF71F88819981AA81BB8164
:101CB00080839183A283B383232B19F424E030E043
:101CC0000AC08C819D81AE81BF8184839583A68368
:101CD000B78328E030E0C901DF91CF910895FC017E
:101CE000A681B7810480F581E02D668177816C5FE4
:101CF0007F4F12968D919C91139740E150E00E9486
:101D0000C70597FF0BC000D083E392E0EDB7FEB7A5
:101D1000928381830E94AA1B0F900F900895CF9306
:101D2000DF93EC01009719F428E432E002C02DE4BF
:101D300032E000D000D083E592E0EDB7FEB79283A9
:101D40008183348323830E94AA1B0F900F900F90EE
:101D50000F90CE01DF91CF910895CF93DF93EC01E7
:101D6000009719F42FEF3FEF3AC08DE592E061E064
:101D700070E0AE010E94C706009721F48091FF0930
:101D80009091000A99838883892B21F400D08AE6F8
:101D900092E01BC08DE592E062E070E0AE010E942F
:101DA000C7069B838A83892B31F48091CD0990915A
:101DB000CE099B838A838A819B81892B19F020E03D
:101DC00030E00DC000D08EE792E0EDB7FEB7928311
:101DD00081830E94AA1B2FEF3FEF0F900F90C90144
:101DE000DF91CF91089523E46D3F720718F00E94B0
:101DF000831D08950E94560308958F929F92AF927B
:101E0000BF92CF92DF92EF92FF920F931F93DF93D7
:101E1000CF93CDB7DEB7A2970FB6F894DEBF0FBE53
:101E2000CDBFDC0116960D911C911797F801E0804B
:101E3000F18044E0C42ED12CC00ED11E8489958936
:101E4000B601680F791F40E150E0481B590BC701EC
:101E50000E9495059C0118161906CCF0009799F47C
:101E6000C7010E9451068DE592E061E070E0A80193
:101E70000E94C706009721F48091FF099091000A03
:101E8000D8018D939C93F801158A148A4DC1D8010D
:101E900054968D919C915597820F931F55969C93C4
:101EA0008E935497409708F43FC155961C921E920A
:101EB000549716966C911697862F86958F70813061
:101EC00009F032C115968C9182958F706170629580
:101ED000607F682B70E033E0660F771F3A95E1F77B
:101EE00063527C4BB3E46D3F7B0760F4CE010196F7
:101EF00048E050E00E945603F801878190E086FD9B
:101F000013C110C08DEE9FEFAFEFBFEFF8018087D8
:101F10009187A287B387878180628783828193813B
:101F2000B601FEC08F7190709595879591E0A92EAE
:101F3000B12C02C0AA0CBB1C8A95E2F7CC24DD248C
:101F4000EE24FF2489E0882E912C8C0E9D1E2CC03F
:101F50006B817C816E0D7F1DC4014AE050E00E94C0
:101F60005603EB85FC856591749149855A85D801A6
:101F700014962C91149715968C91382F3F70241736
:101F8000350758F0215030402A0D3B1D415050403C
:101F9000460F571F421753076CF40894C11CD11CFD
:101FA000EAE0F0E0EE0EFF1E89819A81C816D9069C
:101FB0007CF2A2C0D80117968C91A82EBB24B0E861
:101FC000AB22BB2469897A896115710519F4EE2465
:101FD000FF2420C0CE014396E3E46D3F7E0740F02E
:101FE000DC01FB0180E101900D928150E1F704C01A
:101FF00040E150E00E94F30ED80117968C9190E0DA
:10200000FE01319680FD09C08E719070E80FF91FB6
:10201000E288F388CC24DD2409C001978E7190708A
:10202000E80FF91FC28CD38CEE24FF24EF81F885D2
:102030003496D801149680E10D9001928150E1F719
:10204000EF81F885878180648783E114F104A1F032
:10205000D80114966C91149715968C91782F7F70F7
:1020600089859A85681B790B3896CE010996AF0150
:102070009501F701099517C0C114D10419F42FEF88
:102080003FEF14C0F80164818581782F7F708985C6
:102090009A85681B790BA801485F5F4FCE010996AE
:1020A0009501F60109959C0197FF0BC0EF81F8851A
:1020B00088279927821B930BAA2797FDA095BA2FF3
:1020C00021C06F8178856C5F7F4FF8018281938199
:1020D00040E150E00E94C70597FF26C000D083E38F
:1020E00092E0ADB7BEB712969C938E9311970E9463
:1020F000AA1B0F900F9018C0EF81F88586E190E041
:10210000A0E0B0E080879187A287B3878781806253
:1021100087833496D80112968D919C911397BF01B5
:1021200040E150E00E94C705A2960FB6F894DEBFCA
:102130000FBECDBFCF91DF911F910F91FF90EF9018
:10214000DF90CF90BF90AF909F908F9008950F93A6
:102150001F93CF93DF93DB01EC016C817D81232BF7
:1021600061F49B012A0F3B1FF90185919491EA01CB
:102170009983888322E030E009C06A0F7B1FCA017F
:1021800048E050E00E94F30E28E030E0C901DF9102
:10219000CF911F910F9108950F931F93CF93DF93CA
:1021A000DB018A01EC016C817D81232B91F49B0181
:1021B0002A0F3B1FE3E42D3F3E0720F0F9018491F5
:1021C000EA018883F9018081E801888321E030E019
:1021D00009C06A0F7B1FCA0148E050E00E94F30E5D
:1021E00028E030E0C901DF91CF911F910F91089550
:1021F000FC0186819781860F971FBA0148E050E065
:102200000E94831D88E090E00895CF93DF93FA0148
:10221000EC01AE81BF81232B49F4A60FB71F80814B
:1022200091818D939C9322E030E00AC0CD01860F0E
:10223000971FBA0148E050E00E94831D28E030E07B
:10224000C901DF91CF910895CF93DF93FA01EC019B
:10225000AE81BF81232B39F4A60FB71F80818C93E9
:1022600021E030E00AC0CD01860F971FBA0148E097
:1022700050E00E94831D28E030E0C901DF91CF913A
:102280000895FC0124813581260F371FCA01B90149
:1022900048E050E00E94831D88E090E008959C0192
:1022A000FB0168E070E00E943A20482FC90168E015
:1022B00070E00E943A206F5F7F4FDB01AA0FBB1FC7
:1022C000A60FB71FEF2B61F092962C91929781E0A9
:1022D00090E002C0880F991F4A95E2F7282B0CC0A6
:1022E00092962C91929781E090E002C0880F991FFE
:1022F0004A95E2F78095282392962C9308959C01A5
:10230000FB0168E070E00E943A20482FC90168E0B4
:1023100070E00E943A206F5F7F4FDB01AA0FBB1F66
:10232000A60FB71FEF2B61F092962C91929781E048
:1023300090E002C0880F991F4A95E2F7282B0CC045
:1023400092962C91929781E090E002C0880F991F9D
:102350004A95E2F78095282392962C9308959C0144
:1023600068E070E00E943A206F5F7F4FFB01EE0F44
:10237000FF1FE60FF71F40A1E0E0F0E0C90168E0B1
:1023800070E00E943A2021E030E002C0220F331FAB
:102390008A95E2F7422311F0E1E0F0E0CF010895E1
:1023A0009C01FB0160E270E00E943A20660F771FFB
:1023B000660F771FE60FF71FC90160E270E00E9409
:1023C0003A2021E030E040E050E004C0220F331F0B
:1023D000441F551F8A95D2F780819181A281B381D4
:1023E000822B932BA42BB52B80839183A283B38361
:1023F00008952F923F924F925F926F927F928F92A9
:102400009F92AF92BF92CF92DF92EF92FF920F9383
:102410001F93DF93CF93CDB7DEB728970FB6F8940D
:10242000DEBF0FBECDBF5B015C834B83680183E0E1
:10243000AA0CBB1C8A95E1F7232B29F048E050E059
:102440005A83498302C01A830983222433248DC00E
:10245000C10168E070E00E943A209B0158E0C51677
:10246000D10449F1C10160E170E00E943A204B01C2
:10247000880C991C8B819C81880E991EC10160E299
:1024800070E00E943A20DB01AA0FBB1FAA0FBB1FFE
:10249000EB81FC81AE0FBF1FB887AF832501662497
:1024A0007724B1E0EB2EF12C012D112DE20FF31F5B
:1024B000FE83ED8353C0EB81FC81E60FF71F408163
:1024C000C50187709070892B69F6C50168E070E0DE
:1024D0000E943A206F5F7F4FFB01EE0FFF1FE60F58
:1024E000F71F42A33EC0F0E1CF16D10491F040E2C5
:1024F000C416D104A1F058E0C516D10429F08AEE23
:102500009FEF9A83898337C0AD81BE818C9190E023
:1025100003C0F40180819181A0E0B0E006C0EF81AA
:10252000F88580819181A281B38160E070E08E2185
:102530009F21A023B1230097A105B10511F061E00F
:1025400070E0C2010E944F110894611C711CEE0CD6
:10255000FF1C001F111F0894411C511C6C147D04AA
:1025600014F22C0C3D1CAC0CBD1C49815A81241664
:1025700035060CF46DCF89819A8128960FB6F894B0
:10258000DEBF0FBECDBFCF91DF911F910F91FF90A6
:10259000EF90DF90CF90BF90AF909F908F907F9003
:1025A0006F905F904F903F902F9008950F931F93DF
:1025B00008E010E00E94F9111F910F9108950F9308
:1025C0001F9300E110E00E94F9111F910F910895EF
:1025D0000F931F9300E210E00E94F9111F910F91D9
:1025E00008958FEF9FEF08952F923F924F925F9241
:1025F0006F927F928F929F92AF92BF92CF92DF9213
:10260000EF92FF920F931F93DF93CF9300D000D0F0
:10261000CDB7DEB73B015A834983480163E0660CBE
:10262000771C6A95E1F7232B21F058E0252E312CF9
:1026300001C01801442455249EC0C20168E070E026
:102640000E943A206B0129813A81260F371F80E1D1
:1026500088169104F1F090E289169104F9F0A8E04F
:102660008A16910421F5C30187709070892B11F0AF
:102670008AEE0DC0C30168E070E00E943A206F5FEF
:102680007F4FFB01EE0FFF1FE60FF71F80A1F9013F
:102690008083EAEDFFEFD901ED93FC938AED9FEF84
:1026A000AFEFBFEFF90180839183A283B38353011E
:1026B0001C821B82EE24FF2487011BC0C5010E94DF
:1026C000AF11AA2797FDA095BA2F0B8004C0880FE1
:1026D000991FAA1FBB1F0A94D2F7E82AF92A0A2BCE
:1026E0001B2B8B819C8101969C838B830894A11C5E
:1026F000B11CAB81BC81A815B90504F3B0E18B1600
:102700009104A1F0E0E28E169104F9F0F8E08F1642
:10271000910429F03AEE232E3FEF332E30C0898109
:102720009A81C80ED91ED601EC9221C0C20160E187
:1027300070E00E943A20FB01EE0FFF1F89819A8111
:10274000E80FF91FF182E08212C0C20160E270E07E
:102750000E943A20FB01EE0FFF1FEE0FFF1FA98121
:10276000BA81EA0FFB1FE082F18202831383480CD7
:10277000591C680C791C421453040CF45ECFC1013F
:102780000F900F900F900F90CF91DF911F910F91AD
:10279000FF90EF90DF90CF90BF90AF909F908F9081
:1027A0007F906F905F904F903F902F9008950F9380
:1027B0001F9308E010E00E94F4121F910F910895FA
:1027C0000F931F9300E110E00E94F4121F910F91EC
:1027D00008950F931F9300E210E00E94F4121F91DE
:1027E0000F9108958FEF9FEF08952F923F924F9290
:1027F0005F926F927F928F929F92AF92BF92CF9291
:10280000DF92EF92FF920F931F93DF93CF93CDB799
:10281000DEB728970FB6F894DEBF0FBECDBF3C01E0
:102820002B011A016901902E812E2115310521F00D
:1028300078E2E72EF12C04C0802F912F9C017901C2
:10284000C301B2015E010894A11CB11CA50196014F
:10285000092D182D0E94F41297FF03C02FEF3FEFB0
:1028600021C0C70168E070E00E943A209B01D501B9
:1028700040E050E009C0F101E40FF51F8C91908118
:10288000892B8D934F5F5F4F42175307A4F3C3010A
:10289000B201AE014F5F5F4F292D382D86010E9496
:1028A000F9119C01C90128960FB6F894DEBF0FBE3E
:1028B000CDBFCF91DF911F910F91FF90EF90DF90EF
:1028C000CF90BF90AF909F908F907F906F905F90D0
:1028D0004F903F902F9008950F931F9308E010E0C2
:1028E0000E94F9111F910F9108950F931F9300E11A
:1028F00010E00E94F5131F910F9108950F931F93FD
:1029000000E210E00E94F5131F910F9108958FEFE0
:102910009FEF08952F923F924F925F926F927F9216
:102920008F929F92AF92BF92CF92DF92EF92FF92DF
:102930000F931F93DF93CF93CDB7DEB728970FB6D2
:10294000F894DEBF0FBECDBF3C012B011A01690117
:10295000902E812E2115310521F0E8E2EE2EF12C8A
:1029600004C0802F912F9C017901C301B2015E0147
:102970000894A11CB11CA5019601092D182D0E94D7
:10298000F41297FF03C02FEF3FEF21C0C70168E0AB
:1029900070E00E943A209B01D50140E050E009C060
:1029A000F101E40FF51F8C919081892B8D934F5F7E
:1029B0005F4F42175307A4F3C301B201AE014F5F4B
:1029C0005F4F292D382D86010E94F9119C01C90104
:1029D00028960FB6F894DEBF0FBECDBFCF91DF9122
:1029E0001F910F91FF90EF90DF90CF90BF90AF902D
:1029F0009F908F907F906F905F904F903F902F901F
:102A000008950F931F9308E010E00E94F9111F91A1
:102A10000F9108950F931F9300E110E00E948A1414
:102A20001F910F9108950F931F9300E210E00E94F1
:102A30008A141F910F9108958FEF9FEF08952F92A1
:102A40003F924F925F926F927F929F92AF92BF920E
:102A5000CF92DF92EF92FF920F931F93CF93DF936A
:102A60001B012A01232B21F0B8E0CB2ED12C06C06C
:102A7000C80168E070E00E943A206B01EE24FF2458
:102A8000A1E06A2E712C43C0F201EE0DFF1D808182
:102A9000A82EBB24C50183709070039719F42AEE09
:102AA0003FEF3AC08701020D131DC8010E94AF110C
:102AB0009C01C80168E070E00E943A20982EC8018D
:102AC00068E070E00E943A206F5F7F4FEB01CC0F0F
:102AD000DD1FC60FD71FC801B9010E944F11A1FE0B
:102AE00009C029A1C30102C0880F991F9A94E2F777
:102AF000282B09C029A1C30102C0880F991F9A94ED
:102B0000E2F78095282329A30894E11CF11CEC141A
:102B1000FD040CF4B9CF9601C901DF91CF911F914B
:102B20000F91FF90EF90DF90CF90BF90AF909F906C
:102B30007F906F905F904F903F902F9008950F93EC
:102B40001F9308E010E00E941F151F910F91089538
:102B50000F931F9300E110E00E941F151F910F912A
:102B600008950F931F9300E210E00E941F151F911C
:102B70000F9108958FEF9FEF0895AF92BF92CF927C
:102B8000DF92EF92FF920F931F93CF93DF935B013E
:102B90006A01232B21F091E0E92EF12C06C0C80137
:102BA00068E070E00E943A207B01C0E0D0E025C0E0
:102BB0008E010A0D1B1DC80168E070E00E943A20DA
:102BC0006F5F7F4FFB01EE0FFF1FE60FF71F21A185
:102BD00030E0C80168E070E00E943A2002C03595FC
:102BE00027958A95E2F720FD02C081E001C082E0CE
:102BF000F601EC0FFD1F80832196CE15DF05C4F290
:102C0000C701DF91CF911F910F91FF90EF90DF905F
:102C1000CF90BF90AF9008950F931F9308E010E0FE
:102C20000E94BD151F910F9108950F931F9300E10E
:102C300010E00E94BD151F910F9108950F931F93EF
:102C400000E210E00E94BD151F910F9108958FEFD3
:102C50009FEF0895AF92BF92CF92DF92EF92FF92D3
:102C60000F931F93CF93DF935B01232B21F071E030
:102C7000C72ED12C03C064E0C62ED12C8A01EE24CD
:102C8000FF2442E0F801108297012A0D3B1DC90183
:102C900060E270E00E943A20EB01CC0FDD1FCC0F08
:102CA000DD1FFE01E354F84F80819181A281B38141
:102CB0002F713070022E04C0B695A7959795879511
:102CC0000A94D2F781709070892B11F0F80140833B
:102CD000FE01EB53F84F80819181A281B381022ED6
:102CE00004C0B695A795979587950A94D2F78170F9
:102CF0009070892B21F0F801808181608083C3531B
:102D0000D84F88819981AA81BB8104C0B695A795C7
:102D1000979587952A95D2F781709070892B21F02D
:102D2000F8018081806880830894E11CF11CEC1418
:102D3000FD041CF40F5F1F4FA5CFC601DF91CF919B
:102D40001F910F91FF90EF90DF90CF90BF90AF90C9
:102D50000895DC011496ED91FC9115978081918185
:102D6000A281B3812091B5073091B6074091B70792
:102D70005091B807822B932BA42BB52B8093B507CA
:102D80009093B607A093B707B093B807108211824B
:102D90001282138284819581A681B7812091B9071F
:102DA0003091BA074091BB075091BC07822B932BFF
:102DB000A42BB52B8093B9079093BA07A093BB07B8
:102DC000B093BC0714821582168217828091B507D2
:102DD0009091B607A091B707B091B8070097A105E9
:102DE000B105B9F48091B9079091BA07A091BB07DA
:102DF000B091BC070097A105B10559F400D085EA50
:102E000092E0EDB7FEB7928381830E94AA1B0F90D8
:102E10000F908DED93E48D5D9344E3E09595879558
:102E2000EA95E1F79093AE078093AD0781E090E0DB
:102E30009093B0078093AF0787EA93E06DEA77E05D
:102E400047E050E00E94221F0895CF92DF92EF9258
:102E5000FF920F931F93DF93CF93CDB7DEB72897E1
:102E60000FB6F894DEBF0FBECDBF6A01232B21F051
:102E7000B1E0EB2EF12C03C0A4E0EA2EF12C8B0183
:102E80000B54184FCE01019665EB77E048E050E017
:102E90000E94831D20E030E0F601E20FF31FD8010D
:102EA0008C918083F80111928F012F5F3F4F2E1577
:102EB0003F0594F389819A81AB81BC810097A1057C
:102EC000B10549F48D819E81AF81B8850097A10538
:102ED000B10509F449C08091B5079091B607A0915A
:102EE000B707B091B8070097A105B105E9F5809142
:102EF000B9079091BA07A091BB07B091BC070097A2
:102F0000A105B10589F58DED93E48D5D9344F3E062
:102F100095958795FA95E1F79093B2078093B1075D
:102F20001092B4071092B30787EA93E061EB77E061
:102F300047E050E00E94221F892BB1F000D000D062
:102F400086EB92E0ADB7BEB712969C938E93119725
:102F500085EC92E014969C938E9313970E94AA1B83
:102F60000F900F900F900F90C70128960FB6F8940E
:102F7000DEBF0FBECDBFCF91DF911F910F91FF90AC
:102F8000EF90DF90CF900895CF92DF92EF92FF9273
:102F90000F931F93CF93DF938B01232B21F091E0AD
:102FA000C92ED12C03C084E0C82ED12CEA01EE2416
:102FB000FF24888181FF05C0C8016DEB77E00E9486
:102FC000D011888180FF05C0C80165EC77E00E94C0
:102FD000D011888187FF05C0C8016DEC77E00E94A1
:102FE000D0116881C80170E00E94DD089C0197FD46
:102FF0000BC00894E11CF11C0F5F1F4FEC14FD0483
:1030000014F42196D6CF9601C901DF91CF911F917B
:103010000F91FF90EF90DF90CF9008958AEE9FEF91
:103020000895FA0180917A0010821182128213822F
:1030300087FF08C081E090E0A0E0B0E0808391834A
:10304000A283B38380E090E00895FA0180819181AA
:10305000A281B3810097A105B10531F00E946E0CE9
:1030600080917A00806803C080917A008F77809386
:103070007A0080E090E00895EF92FF920F931F9303
:10308000DF93CF9300D000D0CDB7DEB77A019B019C
:1030900056E0369527955A95E1F7F901EE0FFF1F97
:1030A000E20FF31FEE0FFF1FEB51FE4B6F737070BB
:1030B0006C30710509F450C06D30710550F4643006
:1030C000710589F16830710509F441C0672B81F001
:1030D0000CC06431710509F472C06831710509F4DE
:1030E0006EC06031710509F452C02AEE3FEF69C02D
:1030F00081E4898384E48A83C9016AE070E00E94E4
:103100002620605D6B83C9016AE070E00E94262082
:10311000805D8C83C701BE016F5F7F4F44E050E04C
:103120000E94831D4CC08081282F30E0220F331F66
:1031300040E050E08181882311F041E050E0242BF1
:10314000352BC901AA2797FDA095BA2F33C08281DC
:103150009381A481B5812EC080917A0087FD03C040
:1031600023EF3FEF2EC0C9010E94860C8C0100970F
:1031700019F420EF3FEF25C00E942A0DF70160836C
:10318000718382839383C8010E94DF0C18C08091F1
:10319000930790919407A0919507B091960704C06A
:1031A000B695A795979587952A95D2F781709070D7
:1031B000A070B070F70180839183A283B38320E075
:1031C00030E0C9010F900F900F900F90CF91DF91D9
:1031D0001F910F91FF90EF900895CF93DF93FB0124
:1031E000EA01232B19F02FEF3FEF15C0CB018370BD
:1031F0009070892B19F02AEE3FEF0DC0EC7FE45E52
:10320000FC4F80819181A281B38188839983AA83B5
:10321000BB8324E030E0C901DF91CF9108958EE1B6
:1032200090E060E070E00E947F116E9A80E090E094
:103230000895CF93DF93EC01009711F0C1E0D0E047
:1032400000D000D000D0EDB7FEB7319681EE92E00D
:10325000ADB7BEB712969C938E9311978EE190E016
:1032600093838283C483D5830E94AA1B8DB79EB7A4
:1032700006960FB6F8949EBF0FBE8DBF8EE190E00C
:10328000BE010E947F11DF91CF910895AF92BF924E
:10329000CF92DF92EF92FF920F931F93FA01232BAD
:1032A00009F092C06830710541F06C30710509F485
:1032B00052C06430710509F087C0A0901C03B09023
:1032C0001D03C0901E03D0901F0380819181A281B5
:1032D000B3816430710569F420912003309121039A
:1032E0004091220350912303282B392B4A2B5B2B2F
:1032F00012C09C01AD01209530954095509580916C
:10330000200390912103A0912203B091230328234D
:1033100039234A235B2320932003309321034093D6
:1033200022035093230379018A01E094F0940095DD
:10333000109580912C0390912D03A0912E03B091B4
:103340002F03E822F9220A231B23EA14FB040C05AD
:103350001D0531F53CC020911C0330911D034091A7
:103360001E0350911F03E080F18002811381E094DD
:10337000F09400951095E222F32204231523809106
:103380002C0390912D03A0912E03B0912F03E82AD6
:10339000F92A0A2B1B2BE216F30604071507B9F0CE
:1033A00080E090E0E114F1040105110511F081E0E5
:1033B00090E00E941919E0921C03F0921D03009303
:1033C0001E0310931F0303C02FEF3FEF02C024E042
:1033D00030E0C9011F910F91FF90EF90DF90CF90E7
:1033E000BF90AF900895EF92FF920F931F93CF93EA
:1033F000DF93DC011496CD91DC91159700D000D0BD
:1034000000D0EDB7FEB731968DEE92E0ADB7BEB706
:1034100012969C938E93119780E393E0938382831B
:10342000D583C4830E94AA1B88819981EDB7FEB71A
:1034300036960FB6F894FEBF0FBEEDBF80329105F1
:1034400008F008C1E0902C03F0902D0300912E03AA
:1034500010912F0361E070E002C0660F771F8A951C
:10346000E2F7CB01809590959C01442737FD40956C
:10347000542F2E213F214023512320932C0330939E
:103480002D0340932E0350932F038A819B81892B18
:1034900089F0CB01AA2797FDA095BA2F282B392BAD
:1034A0004A2B5B2B20932C0330932D0340932E0348
:1034B00050932F0320912C0330912D0340912E0324
:1034C00050912F03E216F30604071507A9F400D064
:1034D00000D000D0EDB7FEB731968DEF92E0ADB7DA
:1034E000BEB712969C938E93119780E393E09383DB
:1034F00082838AEB90E069C0E0902003F090210382
:103500000091220310912303E094F094009510950C
:10351000E222F3220423152300D000D000D084E05F
:1035200093E0ADB7BEB712969C938E931197EDB70B
:10353000FEB723833483458356830E94AA1B80E110
:1035400093E0ADB7BEB712969C938E93119780917E
:10355000200390912103A0912203B0912303809531
:103560009095A095B095EDB7FEB783839483A5831E
:10357000B6830E94AA1B2DB73EB72A5F3F4F0FB6F6
:10358000F8943EBF0FBE2DBF80911C0390911D0388
:10359000A0911E03B0911F03E816F9060A071B0746
:1035A00009F500D000D000D0EDB7FEB731968DEF11
:1035B00092E0ADB7BEB712969C938E93119780E3BD
:1035C00093E09383828382EC90E0958384830E94CE
:1035D000AA1BEDB7FEB736960FB6F894FEBF0FBE26
:1035E000EDBF38C0E0921C03F0921D0300931E0350
:1035F00010931F03E114F1040105110501F181E0AD
:1036000090E0088002C0880F991F0A94E2F7AA2769
:1036100097FDA095BA2F209120033091210340916E
:10362000220350912303822B932BA42BB52B809341
:10363000200390932103A0932203B093230380E0FF
:1036400090E0E114F1040105110511F081E090E032
:103650000E941919DF91CF911F910F91FF90EF9068
:10366000089500005353004B435349534F4D4F535C
:10367000494D00384F4900394F4930314F493131B8
:103680004F490000434E0000434E0000434E0000EF
:10369000434E0000434E0000434E0000354433319A
:1036A0004F49004C43530041445331445852314434
:1036B000585400003444444C585432314F490000AF
:1036C00036440000434E0000434E4257482300005A
:1036D000434E0000434E0000434E4B485348000009
:1036E000434E00003541000034410000434E0000CD
:1036F000434E0000334100003241000031410000E0
:103700003041DF93CF93CDB7DEB79E01275F3F4FA8
:103710008D819E816F817885A9010E94B81BCF9110
:10372000DF910895EF92FF920F931F939C01AB01DD
:1037300005E218E0C801B9010E94B81BF82EE92E75
:10374000C8010E941D1E8F2D9E2D1F910F91FF906D
:10375000EF900895DF93CF93CDB7DEB7FE01359696
:1037600081919191BF010E94921BCF91DF910895A9
:103770002F923F924F925F926F927F928F929F9281
:10378000AF92BF92CF92DF92EF92FF920F931F936F
:10379000DF93CF93CDB7DEB764970FB6F894DEBF53
:1037A0000FBECDBF9C8B8B8B1B013A014C014DE2B0
:1037B00014C1853259F461E0462E512C5AE0C52ED1
:1037C000D12C20E230E03A8B298B07C0D4018D93B5
:1037D00069C0E0E3F0E0FA8BE98B0894211C311C0E
:1037E000D1019C91993609F466C09A36B0F49835A7
:1037F00031F1993568F49A3231F19B3230F49923E2
:1038000009F4F0C0953231F54BC0903319F5E1CF92
:10381000933661F19436F1F44EC0903781F09137D0
:1038200030F49E3609F4D6C09F36A1F43DC09537DA
:1038300009F441C0983719F0933761F421C030E1A1
:10384000C32ED12C38C0F301C080D18022E030E0FB
:10385000620E731E892F8153893008F0BECF492E26
:10386000552480ED9FEF480E591EB7CFD3018C91A0
:10387000F40181934F0122E030E0620E731EAAC072
:10388000D301ED91FC9104C0D4018D934D0131968B
:1038900080818823C9F7E2E0F0E06E0E7F1E9AC0B7
:1038A000D4019D934D0196C0BAE0CB16D10419F412
:1038B00028E0C22ED12CF301E080F180F7FE0CC08D
:1038C000FAE0CF16D10441F4F094E194F108F394B6
:1038D00091E0A92EB12C02C0AA24BB2400E110E083
:1038E00017C00150104021E030E02C0F3D1F200F89
:1038F000311FC701B6010E942620FC01E95BFC4F85
:103900008081D9018C93C701B6010E9426207B01DA
:10391000E114F10421F00115110519F707C0003178
:10392000110521F4B0E3B88B0FE010E0A114B1044D
:1039300099F0E989FA89B09721F081E0A82EB12C9D
:103940000BC001501040E1E0F0E0EC0FFD1FE00F74
:10395000F11F4083AA24BB2401501040E1E0F0E0B5
:10396000EC0FFD1FE00FF11F0F5F1F4F80E190E094
:10397000841995098A0D9B1D05C0015010402989A5
:103980002083319780179107C4F3AB2849F0015089
:103990001040E1E0F0E0EC0FFD1FE00FF11F40836D
:1039A000A1E0B0E0AC0FBD1FA00FB11F9801F40162
:1039B00004C08D9181932F5F3F4F20313105CCF3AF
:1039C00082E090E0680E791E80E190E0801B910B10
:1039D000880E991E0894211C311CD1018C918823DA
:1039E00009F0E7CEF401108294018B899C89281B91
:1039F000390BC90164960FB6F894DEBF0FBECDBF78
:103A0000CF91DF911F910F91FF90EF90DF90CF90BA
:103A1000BF90AF909F908F907F906F905F904F90EE
:103A20003F902F90089582E189BD09B400FEFDCF3B
:103A3000089584E085BD8AEF87BD81E080936E00A4
:103A4000089580EA8093D800089580E98093D80093
:103A5000089581E88093D7000895AC01DB01FC0153
:103A60008D9181938823E1F7CA0108959C01FC019F
:103A700001C0319680818823E1F7CF01821B930B2F
:103A80000895AC019B01FA0101C031962115310561
:103A900029F02150304080818823B9F79F01241BF1
:103AA000350BC9010895DC01FB018D9191918917B6
:103AB00041F0891718F021E030E007C02FEF3FEF09
:103AC00004C0882391F720E030E0C9010895DC01AB
:103AD000FB0112C08C919081891741F0891718F071
:103AE00021E030E00EC02FEF3FEF0BC0882339F00C
:103AF00011963196415050404115510559F720E03B
:103B000030E0C9010895EF92FF920F931F93CF9376
:103B1000DF938C01EB017C01CE01802B912B80FD8A
:103B20001FC0BA0120E030E00EC0F801E20FF31F21
:103B3000DE01A20FB31F8D919C919183808362500F
:103B400070402E5F3F4F6230710578F7CA018E7F5B
:103B5000481B590BBE01680F791F7801E80EF91E4A
:103B600020E030E00AC0F701E20FF31FDB01A20FF3
:103B7000B31F8C9180832F5F3F4F415050408FEF98
:103B80004F3F580781F7C801DF91CF911F910F91E7
:103B9000FF90EF900895CF93DF93EC01FA019C0121
:103BA00080FD20C0CB01AA2797FDA095BA2F907069
:103BB000A070B0702227382F492F5A2F282B392B6D
:103BC0004A2B5B2BCF01DE0103C02D933D9302975F
:103BD00082309105D0F7CF018E7F9E01280F391FCB
:103BE000E81BF90BD90101C06D9331978FEFEF3FBF
:103BF000F807D1F7CE01DF91CF910895DF93CF93EE
:103C000000D0CDB7DEB79A8389830A9721F48DE07F
:103C100090E00E94FE1D8091CD099091CE09009701
:103C200039F0BE016F5F7F4F41E050E00E94C70551
:103C30000F900F90CF91DF910895CF93DF93EC0118
:103C400004C0219690E00E94FE1D88818823C9F758
:103C500080E090E0DF91CF9108950F931F93CF9371
:103C6000DF93CEE0D1E008E513E020C0E881F981E0
:103C700009950097D1F000D000D000D0EDB7FEB785
:103C80003196ADB7BEB712961C930E931197D3839E
:103C9000C283958384830E94AA1B8DB79EB7069624
:103CA0000FB6F8949EBF0FBE8DBF229691E0CC3127
:103CB000D907E0F2CEE0D1E008E513E020C0E881CA
:103CC000F98109950097D1F000D000D000D0EDB770
:103CD000FEB73196ADB7BEB712961C930E931197EF
:103CE000D383C283958384830E94AA1B8DB79EB71A
:103CF00006960FB6F8949EBF0FBE8DBF229691E038
:103D0000CE30D907E0F280E090E0DF91CF911F91B3
:103D10000F910895CF93DF932FB7F8948091C9083E
:103D20009091CA0838E0893C930721F42FBFC0E086
:103D3000D0E00FC0EC012297AC81BD81EA81FB810C
:103D4000B383A283ED93FC939B838A839D838C83AF
:103D50002FBFCE01DF91CF9108950F931F93CF9383
:103D6000DF9389EC98E09093CA088093C9089093F8
:103D7000CC088093CB08AFECB8E020E030E0582FBF
:103D8000492FC90163E0880F991F6A95E1F78153B4
:103D9000974FE091CB08F091CC089093CC0880939A
:103DA000CB085C9311964C9311971396FC93EE936A
:103DB0001297918380832F5F3F4F189620323105F1
:103DC00001F7E9E8F8E0A9EAB8E0E083F183E283EB
:103DD000F383AC930B2E11960C9211970A2E129628
:103DE0000C9212970B2E13960C92139734961496EE
:103DF00088E0E93AF80749F707E713E018C0F80147
:103E0000C081D1810CC019830883EA81FB810190B4
:103E1000F081E02D309711F0CE0109952896F80138
:103E200082819381C817D90771F70C5F1F4FF3E0A8
:103E30000B3A1F0720F380E090E0DF91CF911F91B4
:103E40000F9108950F931F93CF93DF938C019A01E5
:103E50004830510518F02AEE3FEF3DC08FB7F89477
:103E60004091C9085091CA0898E0493C590711F49B
:103E70008FBF11C0EA012297AC81BD81EA81FB812D
:103E8000B383A283ED93FC935B834A835D834C836E
:103E90008FBF209719F424EF3FEF1DC07F836E83FF
:103EA000198308838FB7F894220F331F220F331F13
:103EB000E0917203F0917303E20FF31FA281B381CB
:103EC00053834283FB83EA83BD83AC834D935C932E
:103ED0008FBF20E030E0C901DF91CF911F910F919A
:103EE00008954F925F926F927F928F929F92AF92BE
:103EF000BF92CF92DF92EF92FF920F931F93CF93D7
:103F0000DF9319EC412E18E0512E4FB7F894209111
:103F100072033091730380917403909175039093B1
:103F200073038093720330937503209374034FBF20
:103F3000B8E06B2E712CACE1CA2ED12CE091740349
:103F4000F0917503EC0DFD1D0081118102501040B0
:103F5000D8011296ED90FC901397CEEFDFEFEC0EA8
:103F6000FD1E45C0F80180809180D401CD91DC9187
:103F70000FC0F801868197819D838C83EA81FB8144
:103F80000280F381E02D309711F0CE01099528963B
:103F9000D40112968D919C911397C817D90749F7B0
:103FA0000894610871088FB7F894E801AC81BD816D
:103FB000EA81FB81B383A283ED93FC93E091C9086E
:103FC000F091CA08B382A282FB83EA835D824C82AD
:103FD000B092CA08A092C9088FBFF701828193816D
:103FE0008701FEEFEF2EFFEFFF2EE80EF91EE2E055
:103FF000AE2EB12CA00EB11E80917403909175036A
:104000008C0D9D1DA816B90609F0ACCF8CEF9FEF63
:10401000C80ED91E9CEFC9169FEFD90609F08ECFA6
:10402000A8E06A16710409F070CFDF91CF911F915B
:104030000F91FF90EF90DF90CF90BF90AF909F9047
:104040008F907F906F905F904F900895AA1BBB1B3D
:1040500051E107C0AA1FBB1FA617B70710F0A61B88
:10406000B70B881F991F5A95A9F780959095BC01A9
:10407000CD01089597FB092E07260AD077FD04D0BD
:10408000E5DF06D000201AF4709561957F4F089502
:10409000F6F7909581959F4F0895B40BB10BAE0B39
:1040A000AB0BA80BA50BA20B9F0B9C0B990B960BB4
:1040B000930B900B8D0B8A0B870B840B810B7E0B64
:1040C0007B0B780B750B720B6F0B6C0B690B660B14
:1040D000630B600B5D0B5A0B570B540B510B4E0BC4
:1040E0004B0B480B450B420B3F0B3C0B390B360B74
:1040F000330B300B2D0B2A0B270B240B210B1E0B24
:104100001B0B180B150B120B0F0B0C0B090B060BD3
:10411000030B000BFD0AFA0AF70AF40A000100007B
:104120005041120002000062414300030000A5411B
:104130000401030904A9411602030904C14108034B
:10414000030904CB410C0001C11201803601813604
:104150001201000202000010C0167A0400010102E0
:10416000030109024300020100C0320904000001FA
:1041700002020100052400100105240101010424AC
:104180000206052406000107058203100040090409
:104190000100020A000000070503024000000705B5
:1041A000840240000004030904160344006F006702
:1041B000002000480075006E007400650072000069
:1041C000000803590055004E0000000C0330003079
:1041D00000300030003000000008000000A00F0098
:1041E00000FFFFFFFF0A00401F00000A00401F0001
:1041F000000A00401F00000A00401F00000A0040A3
:104200001F00000A00401F00000A00401F00000AB3
:1042100000401F0000CC10A710220E4111241105F0
:10422000114A0EF810CC10A710220E411100000008
:104230000000000000D713E013E913F213D612DFD9
:1042400012E812F11200000000000000006C14756A
:10425000147E148714000000000000000001150AFD
:104260001513151C150C1615161E1627169F15A8C6
:1042700015B115BA15000000002A16000000000054
:1042800000C4170000000000002517000000000017
:104290000000000000000003430543000025420821
:1042A000000D430F43000025421000174362360003
:1042B000002542100119435C060000254210031B33
:1042C0004384060000254210051D430000000065E0
:1042D0004210071F430000000075421009214300EF
:1042E000000000354218092143000000004542202B
:1042F00009214300000000554228092343B5070067
:10430000008542080034127856020000000800546C
:1043100045535428000000A0002800280000020097
:104320000208000800000000003C18000000000027
:10433000000E18000000000000111800000000002E
:10434000002518000000007743794300002542084B
:10435000008143D9410000254210008143E1410022
:1043600000254214008143000000003543400083D3
:1043700043E5410000254308003512010003000019
:10438000000400C00FCC10A710ED18411100000070
:1043900000461900000000B343B543000025420861
:1043A00000BD431C031C0385431800BF43C14300E9
:1043B00000254208001111AAAA0B000000100008F5
:1043C0000013000000000000000000D343D54300AC
:1043D0000025420800020001000C0000000B0095BF
:1043E000420000D507050045430000E9070300959A
:0D43F000430000FD070100C9430000110853
:1043FD000000000000000000000000000000230489
:10440D003205350AF20BD10D030E6E0C48656C6C3E
:10441D006F2C20426174686F73206973207370650F
:10442D00616B696E6720286275696C74206F6E20F0
:10443D002573290A004A756E203235203230313409
:10444D000025730A0073797374656D5F74696D650A
:10445D00725F696E69740000007704000054617327
:10446D006B3A2025730A000000EF040000000025C0
:10447D000600006D6970732D636F6E736F6C650050
:10448D006D6375696F000D0A25733A207377697432
:10449D006368656420746F206D6F64652025730DEE
:1044AD000A006176722D75617274006176722D73DA
:1044BD00706900756172742D6D75782D79756E004A
:1044CD00B80865076C07B10800000000730700000D
:1044DD000000260900007573622D7561727400006D
:1044ED00000000E100000000080000580A5B0ACC43
:1044FD000BEC0B00006176722D7561727400060C69
:10450D00230C090C1D0C00006176722D737069006F
:10451D00470D860D4B0D4A0D00007573622D7561AB
:10452D007274006D6375696F3A206F757470757470
:10453D00206572726F720A006465616400616C6956
:10454D007665006D6375696F2025730A007561725C
:10455D00742D6D75782D79756E006D6375696F3A73
:10456D0020696E2070697065206572720A006D6336
:10457D0075696F3A206F757420706970652065726A
:10458D00720A006D6375696F000000FD0E0000007A
:10459D00006F0E00004E554C4C206770696F206502
:1045AD0076656E740A0025733A20657674206572FF
:1045BD00726F720A005F5F6770696F5F6576747303
:1045CD005F7374617475735F7264000000A91600E7
:1045DD00006770696F25642D3E25640A0025732CD4
:1045ED00206964617461203D2025700A00257320C7
:1045FD0025640A0072203D203078253038780A0075
:10460D006D203D203078253038780A0000000000FC
:10461D00FFFFFFFF00000000000000000000000091
:10462D006D6375696F5F6972715F68616E646C65EA
:10463D00000F19F319000030313233343536373865
:10464D003961626364656600696E697463616C6C7F
:10465D002061742025703A206572726F7220256971
:10466D000A00A908890800E303F303DB03E303F35E
:10467D0003F303F303F3030304030403040304F339
:10468D0003FB03F303F30303040B040B0413041BD9
:10469D00042304FB03030413041B040000000000A7
:1046AD0000000000000000000000000000000000FD
:1046BD0000000000000000000000000000000000ED
:1046CD000000000000000000000000000077010065
:1046DD0000000000006701000000000000E0010084
:1046ED000000000000DA010000280700009F020012
:1046FD0000970700007D01000000000000990200F6
:10470D0000970700004103000000000000DB0200DD
:10471D000000000000000000C301D00100000000F7
:10472D000000E601FB0100000000000005020E0282
:10473D000000000000001802200200000000000030
:10474D0093028F0EAD0E9707983A000003000000FC
:040000030000006693
:00000001FF
